:020000040000fa
:080000000002040000000000f2
:020000040000fa
:1000080002240000062400000a2400000e24000038
:1000180012240000162400001a2400001e240000e8
:1000280022240000262400002a2400002e24000098
:1000380032240000362400003a2400003e24000048
:1000480042240000462400004a2400004e240000f8
:1000580052240000562400005a2400005e240000a8
:1000680062240000662400006a2400006e24000058
:1000780072240000762400007a2400007e24000008
:1000880082240000862400008a2400008e240000b8
:1000980092240000962400009a2400009e24000068
:1000a800a2240000a6240000aa240000ae24000018
:1000b800b2240000b6240000ba240000be240000c8
:1000c800c2240000c6240000ca240000ce24000078
:1000d800d2240000d6240000da240000de24000028
:1000e800e2240000e6240000ea240000ee240000d8
:1000f800f2240000f6240000fa240000fe24000088
:1001080002250000062500000a2500000e25000033
:1001180012250000162500001a2500001e250000e3
:1001280022250000262500002a2500002e25000093
:1001380032250000362500003a2500003e25000043
:1001480042250000462500004a2500004e250000f3
:1001580052250000562500005a2500005e250000a3
:1001680062250000662500006a2500006e25000053
:1001780072250000762500007a2500007e25000003
:1001880082250000862500008a2500008e250000b3
:1001980092250000962500009a2500009e25000063
:1001a800a2250000a6250000aa250000ae25000013
:1001b800b2250000b6250000ba250000be250000c3
:1001c800c2250000c6250000ca250000ce25000073
:1001d800d2250000d6250000da250000de25000023
:1001e800e2250000e6250000ea250000ee250000d3
:0801f800f2250000f6250000cd
:020000040000fa
:1002080000000000300300006a0300004c030000f7
:10021800860300000000000000000000000000004d
:1002280000000000000000000000000000000000c6
:1002380000000000000000000000000000000000b6
:1002480000000000000000000000000000000000a6
:100258000000000000000000000000000000000096
:100268000000000000000000000000000000000086
:100278000000000000000000000000000000000076
:100288000000000000000000000000000000000066
:100298000000000000000000000000000000000056
:1002a8000000000000000000000000000000000046
:1002b8000000000000000000000000000000000036
:1002c8000000000000000000000000000000000026
:1002d8000000000000000000000000000000000016
:1002e8000000000000000000000000000000000006
:1002f80000000000000000000000000000000000f6
:1003080000000000000000000000000000000000e5
:1003180000000000000000000000000000000000d5
:1003280000000000000000000000000000000000c5
:1003380000000000000000000000000000000000b5
:1003480000000000000000000000000000000000a5
:100358000000000000000000000000000000000095
:100368000000000000000000000000000000000085
:10037800000000000000000008030000000000006a
:100388000000000000000000000000000000000065
:100398000000000000000000000000000000000055
:1003a8000000000000000000000000000000000045
:1003b8000000000000000000000000000000000035
:1003c8000000000000000000000000000000000025
:1003d8000000000000000000000000000000000015
:1003e8000000000000000000000000000000000005
:0803f8000000000000000000fd
:020000040000fa
:100400000fa320000e7f22000e01880000000000d4
:10041000000020000000e000020032000001200087
:100420002002880014000700c60007000000e0005a
:1004300003003a00401822000100200002003700ab
:100440000000200001002000810f70000100320038
:1004500014000700000020000000e000020032004d
:100460000000020000000000be17020000000000b3
:100470000040da000000fe004440a90040112000c6
:100480000000e000030032000020200090018800fe
:100490004440a800000006008a1f78008b1f7800e7
:1004a00000000600a1028800800478000000eb0034
:1004b0001f003700e284440054a0b4009905ba003c
:1004c000e284440054a0b4009906ba00e2844400d7
:1004d00054a0b4000006eb00476fde00fd07b20039
:1004e000ae018800636ce10003003a00eaff0700f8
:1004f0000000eb000e003700606ce10008003a00dd
:10050000004deb000a05e800020039003420ec0041
:100510000af0a0008b05e900f9ff3e000400370057
:100520006168e100010032000086eb000b0007006b
:1005300019c7ba001905ba000e04e00003003a001a
:100540000a00e000dbff3a0000000600fe07b200f0
:10055000ae0288008a047800f5ff37000cd0a300b3
:10056000e20f4d001c00390089027800354dba00b9
:100570000a05e800020039003420ec000af0a0006f
:100580008b05e9000f003200254dba000a05e8008e
:10059000020039003420ec000af0a0008b05e900cd
:1005a000080032000c00e0000600320015cdba0051
:1005b0000a05e800020039003420ec000af0a0002f
:1005c0008b05e9008984e80054a0b4000b00e0002a
:1005d000e2ff3a00000006009902ba00055d7800cb
:1005e0008b05e900f7ff3200c82ade00055d7800c0
:1005f0008b05e900f3ff32000c00e000f1ff320050
:1006000019ddba00eeff3700000000000000000016
:100610003600f800809fbe00829fbe00849fbe000f
:10062000869fbe003200f8003400f8001000200061
:10063000a00188000020200090018800d608070053
:100640003400f9003200f9004f03be004f02be0033
:100650004f01be004f00be003600f900004006000a
:100660003600f800809fbe00829fbe00849fbe00bf
:10067000869fbe008020a9000000eb00aa0f0700a3
:100680004f03be004f02be004f01be004f00be0030
:100690003600f900004006003600f800809fbe00da
:1006a000829fbe00849fbe00869fbe00990f0700f8
:1006b0008040a900100020009b0f07004f03be00e0
:1006c0004f02be004f01be004f00be003600f900d1
:1006d000004006003600f800809fbe00829fbe00ea
:1006e000849fbe00869fbe008060a900200020007d
:1006f0008d0f07004f03be004f02be004f01be002a
:100700004f00be003600f900004006003600f80039
:10071000809fbe00829fbe00849fbe00869fbe0059
:100720008080a900300020007f0f07004f03be002b
:100730004f02be004f01be004f00be003600f90060
:100740000040060000000500889fbe008a9fbe0092
:100750008c1f78006b0007007200330003866c006a
:100760006450e1002e0032006420e10033003200ca
:100770006150e1002f0032006120e10031003200c1
:1007800085855500eb07b000090020000804200013
:10079000050037000804440089844c000a00310039
:1007a0000603430087834b000001530081815b00f7
:1007b000f8ff33000203be000800a0000804440054
:1007c00089844c00f6ff3900c639dd0083017300cf
:1007d00001003200130020008904d1000884d300f6
:1007e0000998a300050032000800a7000300a0003c
:1007f0008904d1000884d3008b05e8008904d10066
:100800000884d3000001eb000281d200170007002a
:1008100001f0a1000cf0a70001f0a0004a00370091
:100820006420e1004c0032000801be000200be005e
:10083000f7ff37006120e100470032006000b80098
:10084000f3ff37000000200001f82700f0ff370019
:1008500014002000770037004f89de008201780005
:100860008f0037006011b8009d0037008100200024
:10087000618055000b003d000b00200061fe2f0041
:100880000100e1001d0034008281710061016400fb
:100890008904d1000884d3000000e800faff3a0080
:1008a000710020006100640003007000020060001d
:1008b0000900320061044400e0844c000988a5006e
:1008c000050032008b05e8006808e10002003a00ec
:1008d0008904d1000884d300f20f20000258e100ff
:1008e00005003d00c75ddd00f907b2008980750095
:1008f00008007800000006000bf827008b00780045
:10090000000005000004be00a40007000003be00b4
:100910000405be000200be00a0000700844f750061
:10092000000006000200be006450e1000500360031
:100930006420e100020036000968a30001003a00cb
:100940000800be000160a0004f0678004f05be0001
:100950004f04be0000000600f0ff2f00f1ff27004b
:10096000f9ff3700889fbe008a9fbe008c1f780069
:10097000e4ff0700ebff330003866c006450e100e6
:10098000240032006420e100270032006150e100c1
:10099000220032006120e100210032008b854200fc
:1009a000eb07b1000134b800003ab8000804420077
:1009b00089844a00013ab8000030b80088804000bd
:1009c00009014a0004003300000040008180480013
:1009d000020149008b05e900c909dd0083017000af
:1009e0000100320013002000c814de004814dd00ae
:1009f0004709de001200b200c808de00088470005b
:100a00009aff070001f0a1000cf0a70001f0a00080
:100a1000cdff37006120e100cfff32000801be00aa
:100a20000200be00f7ff37006150e100fcff3a0012
:100a3000c9ff3700889fbe008a9fbe00841f7800d0
:100a4000b0ff07004f00780011003300f0ff2f00c7
:100a5000838f6c0006003b00040565000a00a700b8
:100a60000800370009f0a600100020000800370039
:100a7000820f5400838f5c000300390010002000b7
:100a800001003e000000200009f0a7000000ea007d
:100a90004f05be004f04be000000e000000006004d
:100aa000881f7800030478000300e00007003d0081
:100ab00060001000e080180060011900e08119005a
:100ac00002003b0001f02d00030037000400070086
:100ad00008f0a70001f0a0004f0478000000060015
:100ae000889fbe008a9fbe000082700004027100d1
:100af00004827100260032000004be000200be0025
:100b00006011b8006b092000950220000182cf001f
:100b10000a0039000541b1000082cf00070039000a
:100b20000541b1000982cf00040039000541b10040
:100b30000882cf00010039000541b1000542520092
:100b4000120032000a003b008281710061016400e2
:100b50008100d1000080d3008984d3000884d300b1
:100b60008b05e8000442e800f7ff3a000700370071
:100b70000804440089844c0000004800818048003b
:100b80008b05e9000442e900f9ff3a0037ff07004e
:100b90004f05be004f04be0000000600c70ade007d
:100ba000f107b200f50fb20008003200e1cf4200b9
:100bb000020032000170a00024000500810f7000c7
:100bc000010032000408050044000500810f700098
:100bd00002003a00140005008502e9000000400010
:100be00081c04800fcff3b000170a000240005000c
:100bf000020037000204e0000b003200810178009f
:100c00000002780030417800b14f5100f9ff320006
:100c10001000200014427800934f5200030031006e
:100c20000080eb00000006000000eb000000060062
:100c3000900178000200e00002003a000308e90099
:100c4000050037008080eb001304e0000200320052
:100c50000308e8009300fb00010078000000060094
:100c60000200fa00f0bf9f00ea8157003fb99700e9
:100c70008f80e90080612000020007000080fa00f8
:100c8000000006001200fa00889fbe008a9fbe0086
:100c90008c1f780002047800a0b79f00b1b79f00b6
:100ca0008300780078805700d20007000000eb0036
:100cb000e0b79f00d8b79f00000478005fb69700a8
:100cc0009c85fb008b04fb008b05ea00cf5dde00fa
:100cd00009007800b30007000000e0001b003200ac
:100ce0006fb097000000e800e0b79f0012002000fe
:100cf0008000eb003fb09700afb197000300010008
:100d0000000578000a007800a60007000000e00057
:100d1000f3ff3a006fb09700e10f45000800320082
:100d20000000e900e0b79f000001eb008a007800b6
:100d30003fb09700afb197000300010022003700d9
:100d40000000e900e0b79f001f00370050022000bc
:100d5000808f540002003a000b05e90018003700ac
:100d60000b057800160037006fb097000000e80010
:100d7000e0b79f00120020008000eb003fb097001a
:100d8000afb1970003000100bc00fb00810f5000d1
:100d90000b003200e10f40007c003200efb0970002
:100da0008100e900e1b79f000001eb0080007800be
:100db0003fb09700afb19700030001007300370008
:100dc0000a05e900e8ff3b005fb097008b05400093
:100dd000dbb79f0050022000808f540003003200d8
:100de0000900e000b5ff3a00680037009b4078003a
:100df0000040eb00a2c2b30082cf500003003a00d3
:100e00008b05e800dbb79f0001407800a0f79f004a
:100e10000000eb0080bf9f000b0037000fb8970069
:100e2000f2ff2700820f5000050032006a01b9006e
:100e300000fd2f00020040000100400080bf9f0025
:100e40000a05e800dab79f005fb597009a4478007a
:100e50008900fb0000fd2f0001004000e90f500059
:100e6000eeff3600a0982000560007000000e000ca
:100e7000030032000a05e800dab79f0001003700de
:100e80008044eb00b9f79f005fb0970081c6b300c4
:100e900081cf540004003a0090cf14000b003a00b8
:100ea000e6c0500006003700c1c6b30081cf540031
:100eb00006003a0090cf140004003a00e5c040005c
:100ec000b1f79f000000e800d0b79f005fb0970027
:100ed0009000fb00109920003a0007000000e0009d
:100ee0001a003a006fb097000000e800e0b79f00da
:100ef000120020008000eb003fb09700afb19700d8
:100f00000300010080047800090078002500070034
:100f10000000e000f3ff3a006fb09700e18f44005b
:100f2000080032000000e900e0b79f000001eb007c
:100f3000890078003fb09700afb19700030001002f
:100f4000020037000000e900e0b79f007c805700f6
:100f50002a0007000000e00003003c000800e00059
:100f60000a003a00080037004ff097000004e00044
:100f7000010032000804e8005fb097000000e800bc
:100f8000d0b79f004dff37000004780008007800bc
:100f90004f0678004f05be004f04be000080fa00e7
:100fa000000006006900e100040035006d00e1006a
:100fb000030034000002b10001003200000005000f
:100fc00010000500020037000304e00006003200b4
:100fd0000001780002007800b041780081cf510014
:100fe000f9ff3a00010037000001eb000200780031
:100ff000000006000108780000000600881f780045
:10100000000478000040eb00005498003800900085
:101010001040780031c5b300814f50000b00320002
:1010200004003c0051c2b300814f500028003a0038
:1010300008003700b1c5b300814f500020003200d6
:10104000f8c04000814f500021003a0011002000fc
:101050001c003700480090000000e80040049800a1
:1010600098017800120020008000eb00180090002a
:1010700003000100800078001000200052022000d0
:10108000828f50001300320048009000e18f400032
:10109000070032000000e900400498009801780041
:1010a0000001eb0018009000030001000800370069
:1010b0000000e900400498000100780005003700b6
:1010c0008080eb000800780028000700010037004e
:1010d0000000eb004f04780000000600800178005b
:1010e00002003700815978000201e9000200e000a7
:1010f000fcff3a0000000600110037008001780074
:1011000010427800d5c2b300d3cf120008003a00d5
:10111000814f520003003e00a041900083cf500059
:1011200010003600e3014000630151000300370066
:10113000814f52000b0032000201e90003007800e9
:10114000e20f5100edff3e0003003700b0cf10006a
:10115000050032000201e9000200e000fbff3a0056
:10116000000005001000050010000500f087470092
:10117000889fbe008a9fbe008c9fbe008e1f780095
:101180000004be00f84d90000046eb000900e000ae
:1011900025003d00380090000000e8003004980071
:1011a00090407800ccef9f00e2c5b30082cf5000a2
:1011b00003003a000000e80030049800c1ef9f00ef
:1011c000b8069000d0c5b3009d4f100002003a0051
:1011d0000d00e800010037000d007800d105200067
:1011e00078ff0700c0b79f000000eb00cfb097006a
:1011f0000100e000ca0032000d8550000046eb00ff
:10120000e20f5500080034000a81e9000d00e800f3
:10121000d1022000cc0007001cc0b3000000e00099
:1012200001003a000046eb00680090000000e0007a
:1012300004003c00100020000900e0000100320022
:10124000f0ff2700cbc6b2008b85fb008b05e900c1
:10125000cf5dde0050049800684890000004e00074
:101260000c003a00280090000b00e000050032005e
:101270000080e9002004980010007800b0b79f00bb
:10128000040037000080e900200498001000780076
:10129000d0b79f000047eb00fbb79f00890578009f
:1012a000660037000b00e000030034000d007800fa
:1012b0003cff07001f0037000b00e0001f0032005a
:1012c0000c04e0000d003a004fe997000204e00032
:1012d00005003a000a0178008d007800380090007f
:1012e000990007000c0037000a0178008d00780093
:1012f00038009000940007000e0037004fe8970078
:101300000004e00007003a000a0178008d00780030
:101310003800900078ff07000000e00007003a0066
:101320005d0037000a0178008d00780038009000d9
:1013300071ff07000000e00057003a00ffb097007f
:101340000100e00009003a00684890000004e00055
:1013500039003a005fb197000d597800d2b79f006d
:1013600010c0b3000054980033003700cde79f0051
:101370008d06fb008d04780009f0a7008904ea00bf
:101380008904ea00cf4cde0005003a000d00e000c1
:1013900003003a007c805700750007008004e800d5
:1013a0007b8257001e0020008b0278008a0578009f
:1013b0000905780084047800100037000e07e90062
:1013c000c900fb0048009000e18f40000900320096
:1013d0000000e90040049800980178000001eb004b
:1013e0001800900085bf9f00030001008fba97008e
:1013f000020037000000e900400498008e0f5500fd
:10140000eeff35000b0578008505780068489000f0
:101410000004e00005003a003fb097000d18780086
:10142000b0b79f0010c0b30000549800680090004f
:101430000000e900600498002ec0b300d8009000be
:101440008100e90051049800480090000d0033002d
:101450000000e80040049800980178001200200085
:101460008000eb0018009000030001008006780067
:10147000e18f46008bff3a008b047800ffb59700a0
:101480002d0037008b047800ffb597000000e800be
:1014900040049800280037008b047800ffb59700bf
:1014a000480090000000e90040049800980178008e
:1014b0000001eb008d00780018009000030001008f
:1014c0000900e00002003200e24f57000500320040
:1014d0000e07fb000080eb0011003200100020001e
:1014e0000f003700684890000004e00007003a0051
:1014f0000b00e00003003200bfb097008008eb0053
:10150000020037005fb197000b49780010002000ff
:101510000900e00002003d00cfb0970031049800c0
:101520004f0778004f06be004f05be004f04be00b7
:101530000f01b10000000600480090000000e90023
:1015400040049800deff370003003700b0cf1000e2
:10155000050032000201e900800178000200e0008d
:10156000faff3a00000005000300780000000600c2
:1015700080007800010178003104e000fdff3a00ae
:0815800000005100000006000c
:020000040000fa
:101588001201000000020000020000000008000034
:10159800d80400000a000000000100000102000059
:1015a80000010000090200004300000002010000e1
:1015b80000c0000032090000040000000001000023
:1015c80002020000010000000524000000100000d5
:1015d80001040000240200000205000024060000a7
:1015e80000010000052400000100000001070000c0
:1015f80005810000030a0000000200000904000041
:1016080001000000020a00000000000000070000be
:10161800050200000240000000000000070500006d
:1016280082020000400000000000000004030000e7
:1016380009040000340300004d00000069000000a8
:1016480063000000720000006f00000063000000eb
:101658006800000069000000700000002000000021
:1016680054000000650000006300000068000000ee
:101678006e0000006f0000006c0000006f000000aa
:101688006700000079000000200000004900000009
:101698006e000000630000002e0000001a03000026
:1016a80050000000720000006f000000640000009d
:1016b80075000000630000007400000020000000b6
:1016c8004e000000610000006d0000006500000091
:1016d800d68a00001a8b00001e8b0000528b000077
:1016e8002573000000360000340d00000a000000d9
:1016f800535400004f5000000d0a0000004600003f
:101708004c410000534800005f5500004e4c00005b
:101718004f4300004b000000464c000041530000be
:10172800485f00004c4f0000434b0000005200008f
:1017380045410000445f00004d4500004d00000099
:101748004552000041530000455f0000464c000030
:101758004153000048000000446f00006e6500001f
:101768005f45000072610000736500000d0a00000b
:10177800004a0000554d0000505f00004150000035
:10178800500000005550000047520000414400003e
:10179800450000004e65000078740000526f00009c
:0817a800770d00000a000000ab
:020000040000fa
:1017b0000080fb000181fb000000400000014100af
:1017c0004311dd0003a020000301410012f0a1003d
:1017d0000104e00002003a0081932000010037007c
:1017e000e19320008230780012e0a1006401410002
:1017f00012e0a000000006007149800080c0b30024
:10180000e78f50000b003e007049800011c0b3000c
:101810000e48e20005003200e1802000914078008f
:10182000e1cf500003003a0021c0b300e280200065
:1018300001497800724980008080fb0081005100de
:1018400071498800f1498000804878004195200066
:1018500081408800614980000108a3000700320030
:101860000f003700514980008240800031597800d4
:1018700082408800514988000040e9000004e000ef
:10188000f8ff3a00000006005149800082408000c5
:101890003159780082408800514988000040e900b1
:1018a0000004e000f8ff3a000000060000c8b300a2
:1018b00041942000914f100030003a00c092200067
:1018c00001ccb30001487800719420009140780069
:1018d000e2cf500008003200e3cf50001700320082
:1018e000e1cf500024003a0040ac28005049880065
:1018f000200120001c003700619420001104e0004a
:101900001b003a001180fb0000004000c1b6280017
:10191000e10078005149880051498000e0922000a0
:10192000a140900001487800514980000000e80083
:10193000b14090000148780000000600619420004a
:1019400022c0b300914f110009003e001180fb003e
:1019500000004000e1b62800e1007800514988000d
:10196000504980001080fb0070498800000006008c
:101970000048eb00000006000048eb0000000600f5
:10198000409520000048eb008000e8008048eb0014
:101990004194200091407800ffc060008180fb00ee
:1019a000e18f50000b003200e28f50000d0032003a
:1019b0000100e00024003a00614980000170a000ad
:1019c000614988000348e2001f0032001014a000a3
:1019d0001d003700604980000070a0006049880049
:1019e00019003700604980000070a000604988003d
:1019f000809420001004e0000600350010407800bc
:101a00006f4060000080fb000000400081932000d8
:101a100005003700104078006f4060000080fb0038
:101a200000004000e1932000e10078000040280021
:101a300091006000808f500003003a0011c0b30095
:101a40004095200001487800604980000078a3009c
:101a5000080032004095200050498800604980000d
:101a60000000a0006049880021c0b300e09220007f
:101a700001487800000006002a24ab001100320063
:101a8000504080001041900001c8b300814f5100c8
:101a90000b003a00f14980001141900041c8b300a9
:101aa000814f510006003a00c1c0b30011409800b8
:101ab00051408000114090000074a00090409800b8
:101ac0002a24a900000820005020880000000600f9
:101ad000881f7800f0498000100478004e44de0032
:101ae00061446400e19320000020a2008008780097
:101af00030408000e80f500009003a006094200058
:101b00001080fb00f007b200b02088000001200028
:101b10001604e20001003a00400020003040880036
:101b20000fc8bf00e14f500015003a00419520005a
:101b3000f0498000110098002fff0700e18020008d
:101b400091407800f0498000e2cf500002003a0056
:101b500041c0b3000400370081c4b3000804e000b2
:101b60000100320081c0b30011409800f1498000ab
:101b7000114090000074a0009040980012003700bf
:101b8000209320001004e0000e003d00e300400020
:101b90009181fb00640040001081fb004811dd00d2
:101ba00002817100050032009180fb001080fb0073
:101bb0004800dd000080700000000100209320003c
:101bc0001074a1000f68ef004f04780000000600b9
:101bd0000468ef000001eb0082007800400720005d
:101be000430a07000284a9000001200000208800a9
:101bf0000968ef00000006000284a8000001200030
:101c00005020880010c0b30004e8b7000968ef0056
:101c10000001eb008200780050072000340a3700f2
:101c2000889fbe006094200090407800e1cf500073
:101c30000f003a000080e900104078007f4060000b
:101c40000b003a00604980000070a00060498800e5
:101c50005094200032c0b300904f110003003a00ae
:101c60003080200001487800010037000368ef0051
:101c7000609420001004e0008f003a000080e9002a
:101c8000104078007f406000e24f50008a003a0028
:101c90008094200010417800ef40610086003200ff
:101ca00010417800ef4061008180fb00e28f50001e
:101cb00081003c000102200032408000810f510071
:101cc0007d003a00614980000170a00061498800f0
:101cd0001004e0000b00350010417800ef40610077
:101ce0008180fb0081804000829320006284780024
:101cf000104078006f4060000080fb0011952000cc
:101d00000a00370010417800ef4061008180fb003d
:101d100081804000e29320006284780010407800c7
:101d20006f4060000080fb00e1942000e1447800f7
:101d30000908a30002003a000820a10001003700b2
:101d40000820a000809420001004e0000600350068
:101d5000104078006f4060000080fb0000004000f1
:101d60008193200005003700104078006f4060002c
:101d70000080fb0000004000e193200088307800e4
:101d80005094200031c0b30090cf100016003a00ec
:101d90001800e0000f003d00630040001004e00068
:101da0000500350010407800ef4060008180fb00a6
:101db000129520000400370010407800ef406000ca
:101dc0008180fb00e294200062c078000014a00033
:101dd00000f178009840900040c8b30000c0700047
:101de0001044980034003700880078000120a200d9
:101df000114090001100e00007003d000074a100b8
:101e00000064a000904098002200200050002000b4
:101e1000b7090700020037000064a0009040980056
:101e20000918a30002003a001800e00017003d0066
:101e3000809420001004e000050035001040780078
:101e4000ef4060008180fb00129520000400370005
:101e500010407800ef4060008180fb00e294200099
:101e600062c078000014a10000f1780018409000d2
:101e7000b043b2001044980022002000880078008f
:101e8000500020009a090700030037001840900016
:101e9000b043b200104498008094200010407800b5
:101ea0006f4060000080fb0000004000a142200065
:101eb000010040001014a1004f04be000000060005
:101ec000604980000070a000604988002c24ef0069
:101ed0002e24ef00020320008000eb0000a0200071
:101ee0007efc07001424a8000000eb008040eb00fb
:101ef000e2942000017178001295200001717800b1
:101f00000000e800e30f5000f8ff3a002200200034
:101f10008000eb00c094200070fc07001424a9008e
:101f200080a02000f04988006800500050408800e0
:101f3000604088006094200010417800818020007b
:101f400082487800000120000848e20005003200c5
:101f50001200200081802000020078006409070040
:101f6000000220003040880000000600409420005d
:101f700001c6b30010c060003b003a00509420003e
:101f80001080fb008000eb00eb0f5000e08f58004a
:101f900035003e00006001001500370015003700d5
:101fa00031003700130037002f00370006003700dc
:101fb0000b003700280037000b00370009003700fe
:101fc0000d0037001b003700604980000070a00042
:101fd0006049880080002000304088000000060032
:101fe00032fe3700b6ff3700808020000600370041
:101ff00063fe37000aff3700809420009080fb00ca
:10200000c094200000804000504988006049800052
:102010000000a0006049880011c0b300e0922000d9
:1020200001487800604980000070a0006049880085
:1020300000000600604980000070a0006049880030
:10204000809420001080fb00c19420006294200046
:1020500092707800000006000001eb00820078001a
:102060002000200022090700000006009ec0a900f1
:102070000ea4ef000aa4ef002a24ef002c24ef00a6
:102080002e24ef0020002000302188002824ef00bb
:102090000644a900f0092000802088006020880004
:1020a00002c4a8000804a80000a020004800de0028
:1020b000c02088000000eb00c200dd0002a020006c
:1020c000810041008008eb00b11078000000e800ba
:1020d000ec0f5000f8ff3a001424a8001624ef007b
:1020e00014a4a9001424a900800020005020880016
:1020f000c09220000048eb00209320000048eb0035
:102100000000e800904078000048eb000000e80084
:10211000904078000048eb000a64ab00f2ff3a0000
:1021200010c0b30016e8b70017e8b7000268ef0068
:102130000068ef000468ef00c29320006193200064
:102140000000eb008001eb000029eb008028eb0091
:10215000e494200003727800149520000372780044
:102160000000e800e30f5000f6ff3a0080a02000d6
:10217000f0498800d00020005021880040942000c1
:102180001050880081c0b30000a0200001487800f2
:102190000000e80041c0b300014878001074a000be
:1021a0000868ef001828ef001a28ef000968ef0010
:1021b0000628ef0000000600889fbe008a1f7800f6
:1021c00000447800814478000985fb000a38a300a8
:1021d000030032008040eb000840780074fd0700e7
:1021e0000a28a3000300320011c0b30008407800a1
:1021f0006ffd07000884fb0008044400a042200093
:1022000009707c004f0578004f04be0000000600f6
:102210000082fb000104e0000300320004024200df
:10222000e59320000200370004024200859320005d
:1022300065027a008002eb000400e0001700320023
:1022400012029800034a7800144190000244b20040
:1022500012429800144190000234a00012429800eb
:10226000144190000274a000124298000080fb000c
:102270000104e00002003200e19320000100370079
:102280008193200000004000008140006100780040
:102290000020a20000097800840278000500780080
:1022a000000006000004e00014003a0081c0b30002
:1022b0006040800001487800604080004194200028
:1022c00011009800c1c0b300114098006140800027
:1022d000114090000074a0009040980041c0b300ed
:1022e000f049800011409800f149800011409000b1
:1022f0000074a00090409800000006008180fb0060
:102300000080fb0000004000008040004300dd0032
:1023100002a02000820140001342900041c8b30097
:1023200001427200944198006400400002004000a5
:10233000104190008140710011409800000006009b
:1023400014a4ab00170032000080fb000000400026
:10235000e1932000610178001203be000404200014
:10236000060362008003eb000689be00e1027800ec
:102370001501be000260a200828abe0061017800e1
:102380000220a20082307800924190000344b20003
:1023900013419800610078009040900004c26800ea
:1023a00014409800000006001424ef000c24ef00f5
:1023b0000628ef00000006000608e20011003a00bf
:1023c0001424ef000c24ef002000200030218800ae
:1023d0002824ef000644a900f0092000802088008e
:1023e0006020880002c4a8009ec0a8000100370039
:1023f0001404a8001404ab00fdff320010002000fc
:1024000030408800000006001648e2002b003a0029
:1024100010c0b30016e8b7001748e20027003a00e2
:1024200017e8b7000fc8bf00e24f50000a003a009b
:10243000f04980000048eb0081c4b300f0498000ff
:1024400011409800f1498000114090000074a000f4
:102450009040980000000600f3802000934178002f
:10246000e1cf510015003a001468ef0082c0b300bc
:102470005040800002487800504080004194200085
:102480001100980044c0b3001440980054408000ec
:10249000144090000074a000104298004081200079
:1024a0000348780060408000024878006040800067
:1024b0001100980001c8b300114098000000060008
:1024c0005040800090407800329320001282fb0040
:1024d0000200e8009081fb00c819dd008301720052
:1024e0000182fb00830f5200020036009280fb0045
:1024f0001080fb00329320001282fb000200e800f3
:102500009081fb00c819dd00830172000182fb008d
:10251000848151001242780003497800c819de0016
:1025200010417800034878000000eb000e003700ef
:10253000049320009482fb008401e8001381fb00d7
:102540004811dd0002817200459520006559780030
:1025500094427800024a78004811de001342780065
:10256000824978000000e80080cf5000f0ff3e0074
:10257000309320001080fb00419320009180fb00ed
:10258000c808dd0081007000604080000f0032004c
:1025900081c0b3000148780060408000429520006f
:1025a000120098005240800012e8a30001003a0097
:1025b00081c4b30011409800614080001140900038
:1025c0000074a000904098000000060081c0b30095
:1025d000014878006040800041942000110098007c
:1025e00041c0b3001140980061408000114090004c
:1025f0000074a00090409800519320009181fb004e
:102600000100e8001081fb004811dd00028171002b
:10261000050032009180fb001080fb004800dd00c7
:102620000080700000000100209320001074a100c1
:102630000148e20001003a0073ff070000000600b5
:102640000fc8bf00e24f500001003a009cff370066
:102650000f68ef001448e2000d003a0081c0b3009b
:102660006040800001487800604080004194200074
:1026700011009800c1c0b300114098006140800073
:10268000114090000074a0009040980000000600e7
:102690001468ef00000006000268ef000068ef0019
:1026a0000fc8bf00e24f50000a003a0081c0b300db
:1026b0006040800001487800604080004195200023
:1026c0001100980081c4b30011409800614080005f
:1026d00016003700a19420001181fb000100e800e2
:1026e0009081fb00c819dd008301710072498000f0
:1026f000828f5100050031009180fb001080fb00ab
:102700004800dd0000807000704988003afc070036
:1027100041952000f04980001100980081c4b30069
:10272000f049800011409800f1498000114090006c
:102730000074a000904098000000060014a4a900b6
:10274000604980000078a3001f003a002093200019
:102750001004e00008003d0020c0b3000fe8b700ff
:102760000048e20001003a00cbff07001768ef00c5
:102770001668ef000000060081c0b30060408000d2
:1027800001487800604080004194200011009800ca
:10279000c1c0b3001140980061408000114090001a
:1027a0000074a0009040980041c0b300f049800040
:1027b00011409800f1498000114090000074a00081
:1027c0009040980000000600419420001104e000b1
:1027d0000a003d0010c0b3000fe8b7000248e20055
:1027e00001003a00acff07001768ef001668ef0021
:1027f0000148e20013003a0003ff370020c0b30095
:102800000fe8b70082c0b300604080000248780043
:10281000604080001100980041c0b3001140980052
:1028200061408000114090000074a000904098002a
:102830001768ef001668ef000148e20001003a0057
:10284000f1fe0700000006000e68ef000168ef00cf
:102850000268ef000068ef001468ef000f68ef00f7
:10286000e093200010017800924090000174a100d4
:1028700011419800900078000120a2000108780022
:10288000114190000274a100924098001020a20013
:1028900061408000114090000074a10090409800b9
:1028a000c09220000048eb000000eb007049880057
:1028b00021932000804878008100e80011417800d1
:1028c000804878008100e800114178008048780055
:1028d000a6fd07000001eb00820078003000200018
:1028e0000307070095ff3700d0c2b30015e8b70013
:1028f00012c8bf00b00fb20014003a0012c8bf00e7
:10290000c00fb20001a0200001004000504088002c
:10291000800078000120a2006140880002c02300ee
:102920001001610001402300810f510006003a00b0
:10293000100090004194200007000900b058780072
:102940008000b100c0ff37003dff370012c8bf0054
:10295000b00fb200e80f500001003a005cfc070025
:1029600000000600c0408000d140800061004000af
:10297000e0804800c0408800d14088000448e20060
:1029800004003a000968ec000948e20001003a003e
:1029900009e8ef0000000600881f78003040800042
:1029a000e10f500007003a0014c4ab0005003a00e4
:1029b0000aa4ef000c04a8000c84a800200020004a
:1029c000304088000084ab00050032000284ab0078
:1029d0000300320000012000002088007cfc07007a
:1029e0000824ab005f003a000a04ab000800320084
:1029f0000c04ab00060032009cfd07009ec0a8003e
:102a00004000200030408800100020005020880046
:102a10000a84ab00030032000c84ab0001003200da
:102a200075fc070000c4ab00030032000004200066
:102a300000208800cbff07000a44ab000e003200e4
:102a40000c44ab0004003200120020008000eb00b8
:102a500030072000a6060700400020005020880014
:102a60001548e200010032001568ed001548e2004b
:102a700001003a0064fe07000ae4ab0003003200e4
:102a80000ce4ab0001003200fbfb07000a24ab00a2
:102a9000090032000c24ab000700320012002000b5
:102aa0008000eb00f0ff2700910607000ea4ef0066
:102ab000200020005020880030408000e30f5000ac
:102ac000280036000c64ab002600320048c0b3007a
:102ad0000a64ab00230032009020800012e8b700a7
:102ae00012c8bf000080fb004400de0013e8b700fe
:102af000800020005020880012c8bf000038a300ca
:102b000004003a0013c8bf000080fb0011952000ac
:102b10000300370013c8bf000080fb00e1942000d1
:102b200061417800614161000204a200e141780046
:102b30000304a10002c17100827078001348e20012
:102b400002003a0068ff0700040037000001eb00b4
:102b50002181200020072000650607000844e900c5
:102b6000dbff3a008ec0a9004f0478000000060089
:102b7000c0408000d1408000c2408000d34080002f
:102b8000820f5000838f5800f9ff3a0000000600c2
:020000040000fa
:102b9000f08d2000ea0040000068eb00810f50003b
:102ba000fdff3a00908e200001042000808040004c
:102bb0000068eb00810f5000fdff3a0000000600a6
:102bc0009420ef009620ef009820ef009a20ef006d
:102bd0009c20ef009e20ef00a020ef00a220ef003d
:102be000000006001400fa00889fbe0030408000fc
:102bf000e30f5000de0036000824ab00dc003a0092
:102c000001c4b300a08e20008f03070000447800a9
:102c1000008e2000801f780040b72800801f7800b9
:102c2000a08e20000ef80700e4875700e44f540000
:102c30004b003a00a08e20001080fb008000eb00cb
:102c4000c0b79f00d1b79f000003be00b08e200028
:102c50001080fb008000eb00e0b79f00f1b79f0001
:102c60000001be00c08e20001080fb008000eb0041
:102c700080bf9f0091bf9f000002be00d08e200049
:102c80001080fb008000eb00a0bf9f00b1bf9f0041
:102c90002fb89700bfb89700c833dd0006002000aa
:102ca000c011dd0002002000020173008381730067
:102cb00000017100818171004828dd00c820de001c
:102cc000810070004820dd000001710081817100e9
:102cd000b2418800c341880008202100090020007b
:102ce00090418000a14180000004440081844c0098
:102cf0000804440089844c000800be00be0407009c
:102d000090418000a141800061004000e0804800c7
:102d100090418800a14188009dff07001dc8bf00a9
:102d200061bf2a00810f5400e08f5c0006003e0066
:102d30000004e000010032008c03070021c0b30052
:102d400070b72800050037000004e00001003200e1
:102d50008603070041c0b300c0b728005403070032
:102d600031b82800008e2000a1f707000000e00025
:102d700004003a0050052000a10a20006604070064
:102d800083ff070001b92800008e200098f7070094
:102d90000000e00002003a00640407007cff070026
:102da000b1b92800008e200091f707000000e00074
:102db00035003a0008202100090020007041800001
:102dc000814180000004440081844c0008044400d8
:102dd00089844c000800be00680407004809de0032
:102de0000300200082ff9f0091ff9f0002f02f0050
:102df000000161008001eb00481add004811de008f
:102e000002017200c819de00a2ff9f00b0ff9f0000
:102e1000704180008141800061004000e0804800f6
:102e200070418800814188001dc8bf0061bf2a0031
:102e3000810f5400e08f5c0006003e000004e000bb
:102e4000010032004903070041c0b3006880570009
:102e50000b0037000004e0000100320043030700cc
:102e600041c0b300c0b72800110307001d48e200ad
:102e7000010032003d03070041c0b300c0b7280085
:102e80000b03070042ff070041ba2800008e200014
:102e900057f707000000e00017003a005005200037
:102ea000a10a20001c04070008402200090020009d
:102eb0000800be003d040700004020000100200083
:102ec000080440008984480004802a00840f5400cc
:102ed000e08f5c00f6ff3a00140407001d48e20092
:102ee0000100320021030700a1c0b30000bb28008d
:102ef000ef02070026ff0700d1bb2800008e20004c
:102f00003bf707000000e0000d003a002e28ef001c
:102f10003028ef003228ef003428ef0028ff0700a8
:102f2000200320004b0507001ffd0700c02b2000d9
:102f30004805070000260400000000000b003700d1
:102f400061bc2800008e200029f707000000e00087
:102f500005003a000eff070071c0b300e0bc280076
:102f6000d30207000100370009ff0700ff02070036
:102f70004f04be000080fa00000006000801e200d5
:102f800014003a0083e0a800690507002c0507003b
:102f9000803e20002f05070034fc070006fd0700d7
:102fa000803e20002b0507007bfe0700803e2000ae
:102fb00028050700908e200001042000808040003a
:102fc0000068eb00810f5000fdff3a0005ff07008d
:102fd000feff37000801ab000200320000260400ab
:082fe0000000000010000500d4
:020000040000fa
:102fe800f08f2f00ce00b6000080a0007006880089
:042ff80000000600cf
:020000040000fa
:1030000000000000000000000000000000000000c0
:1030100000000000000000000000000000000000b0
:1030200000000000000000000000000000000000a0
:103030000000000000000000000000000000000090
:020000040000fa
:103800004094200010417800ff406100e1cf50005b
:1038100059003a0002c6b3009040610000c2b300f4
:1038200080cf500054003a00809420001004e00043
:103830000300320011c0b30090cf10004e003a00d8
:10384000509420001040780001c2b300814f500016
:103850001b00320005003e000004e0000a003200b8
:10386000e14f500044003a000f00370011c2b3008e
:10387000814f5000300032008140e800814f5000fd
:103880003d003a0034003700808d20005049880008
:103890008000200070498800604980000000a0007e
:1038a0006049880002003700808d20005049880060
:1038b000604980000070a000604988000000060098
:1038c000a09420009080fb000000e8001080fb0026
:1038d0004800dd0000807000319320001141780025
:1038e00080487800c800de00409320001041780036
:1038f00001487800008520000193200011417800e4
:1039000080487800c800de00109320001041780045
:103910000148780064004000904078000048eb00c7
:103920000000e800904078000048eb006400500080
:103930001074a00000000600008520005049880097
:10394000700020007049880011ccb300c0922000a4
:103950000148780000000600609420001080fb0001
:10396000719420009180fb0028e8b7006049800036
:103970000070a000604988000000060000b024002c
:103980000100200080428800914288000040eb0046
:1039900041852000804878008100e8008048780058
:1039a00081c0b30060852000014878001c68ef00ea
:1039b00051c1b30010c0b300fff90700d1c1b3007b
:1039c00020c0b300fcf9070003c4b30082892000c3
:1039d0008040eb0020c0b3000dfa070020418800b2
:1039e0002628ef001d68ef0000000600881f780001
:1039f00001047800e50f500010003a0020418000db
:103a0000880f500006003a0003c4b30082892000ea
:103a10008040eb0020c0b300fdf907002041880082
:103a200010c0b30031418000888f500004003a007c
:103a30001d68ef002068ef00010037000040eb0038
:103a40004f04780000000600000178001c68ef00b9
:103a5000204180000000e000020032001000e00081
:103a60001100350090cf50000600360090407800dd
:103a7000040037000080fb00838920006371780018
:103a80001c68ec001cc8bf00814f5000f9ff3900d2
:103a900003c4b300828920008040eb0020c0b30043
:103aa000dbf90700204188001cc8bf0000000600a9
:103ab0009ec0a9001d48e20006003a00f0408800c0
:103ac000008220000148780010c0b30021e8b70050
:103ad0001de8b7009ec0a800000006009ec0a90017
:103ae0001d48e2000d003a00000178008040eb0024
:103af0008140e800e1cf4000020032003204e000e3
:103b0000fbff3a00f0408800008220000148780066
:103b100010c0b30021e8b7001de8b7009ec0a800a0
:103b2000000006009ec0a9001d48e2000d003a00fa
:103b3000000178008040eb008140e800e1cf4000c8
:103b4000020032003204e000fbff3a00f04088003f
:103b500000822000014878002168ef0010c0b30007
:103b60001de8b7009ec0a800000006009ec0a90086
:103b7000304180000000e000020032001000e00050
:103b8000410035001dc8bf00e34f500001003a005e
:103b90001d68ef001dc8bf003b003200e24f50001f
:103ba00008003a008041eb000001eb0011c0b300b7
:103bb00097f907003041880030c0b3001de8b70016
:103bc00031003700e14f50002f003a0020c8bf00fd
:103bd0008041780001c4b300814f500001003600dd
:103be000814178000340500020e8b7008085200024
:103bf000104188002148e2000200320003407800b2
:103c0000110037000340780006003700f2408000c2
:103c100011418000924878002228ec001e28ec0018
:103c20000040e9000004e000f8ff3a000800370017
:103c3000f240800011418000924878002228ec0078
:103c40001e28ec000040e9000004e000f8ff3a0004
:103c50002048e20007003a0000c4b30080cf5100c2
:103c600002003a0020c0b3000100370030c0b300aa
:103c70001de8b7008285200011c0b30020c0b3004a
:103c800063f90700304188009ec0a80000000600cc
:020000040000fa
:103c9000a1972000220a2000400920005118780036
:103ca000820f5000fdff3a003e08f8000c04f900b6
:103cb0004008f8000204f90042c8bf006700600035
:103cc0004800dd00f18f2f007206800082806000c6
:103cd0008100700071068800f0f12f004200b600ec
:103ce0003c08b700e0418800100288000000060090
:103cf0001e00fc00010e2000100280000100600088
:103d0000e0418800010078004220b700a197200020
:103d1000220a200040092000902878000018eb00bb
:103d2000820f5000fcff3a000c04f8003e08f90036
:103d30000c24ef000204f8004008f9000224ef0010
:103d4000700680004800de006700600010428800b6
:103d50000001200000208800000040005020880062
:103d60008ec0a9000284a800f08f2f00ce00b600fc
:103d700000a0a000700688009ec0a80000000600f9
:103d80003a68ef001000fc009ec0ab000200320059
:103d900010c0b3003ae8b7009ec0a90000000600ba
:103da0003a48e200010032009ec0a8000000060070
:103db000881f78000804ab000a0032000824ab001a
:103dc00008003a009180200091407800e3cf500035
:103dd00004003600282080004344de006144640073
:103de0001c0037000004e0000f0032000824a90086
:103df0000804a800e2ff070050c0b300010420003f
:103e00000120880000c4ab00feff32000040e90042
:103e1000faff3a00282080004344de006144640039
:103e2000dfff07000b00370000c4eb000804ab0005
:103e300008003200e8cfb3000824ab0005003200d0
:103e400009c8bf00c8cfb300e34f500001003e00d7
:103e5000d8cfb300084078004f0478000000060077
:103e6000a3ff07000348e2000100320004c8bf00be
:103e70000040fe000aa4ab0002003a0010c0b300ec
:103e8000cbff070082ff0700100005000040eb0099
:103e90000348e2001e0032000448e2001c00320029
:103ea0000824ab00010032000824a900b4ff070079
:103eb000000420000020880000c4ab00feff320098
:103ec000000420000020880000c4ab00feff320088
:103ed000000420000020880000c4ab00feff320078
:103ee0001444a800000420000020880000c4ab0097
:103ef000feff3200000420000020880000c4ab0058
:103f0000feff32001444a900a5ff070010c0b30053
:043f100000000600a7
:020000040000fa
:103f14000000fe0062992000001978000109780071
:103f2400000006000000fe000000eb008000eb0033
:103f3400f8ff07006627ef00000006000000fe00ff
:103f4400801f7800811f7800619920000600fc0022
:103f540031007800303b880011007800303b880045
:103f640061e7a8000000000000000000cf00780016
:103f74004f00780000000600a2028000a102880021
:103f84009080ba001000ba00a20288000000060067
:103f9400a2028000a10288001000ba00a2028800d8
:103fa400000006000000fe0061e7af00feff3700de
:103fb400f23f2000000161000c003a0022042400ba
:103fc400023b8800a2028000a10288000008bb0016
:103fd400a21f02000000000061e7af00feff3700ef
:103fe400a20288001000200061a7af00000020009a
:103ff4000000060061e7af00feff37000000a700e5
:104004000d003700a4028000a102880031002400c2
:10401400013b88000208bb000388bb00a21f02000a
:104024000000000061e7af00feff3700a402880033
:104034001000200061a7af0000002000000006006f
:1040440061e7af00feff37000000a7000e00370055
:1040540033002400033b8800a3028000a1028800ef
:104064000208bb00f20f20000288bb00a21f02005e
:104074000000000061e7af00feff3700a3028800e4
:104084001000200061a7af0000002000000006001f
:1040940061e7af00feff3700f30720008081610075
:1040a40010003a0013002400033b8800a3028000a0
:1040b400a1028800040420003208bb003298bb002f
:1040c4001400b100fcff3a00a21f0200000000002f
:1040d40061e7af00feff3700a30288001000200054
:1040e40061a7af00000020000000060061e7af00f8
:1040f400feff3700f30720008081610011003a00c1
:1041040013002400033b8800a3028000a10288005e
:1041140004042000f10f20003208bb000198bb000a
:104124001400b100fcff3a00a21f020000000000ce
:1041340061e7af00feff3700a302880010002000f3
:1041440061a7af000000200000000600f23f20003d
:10415400000061000000060002c02f0000006100a2
:0c416400f2ff2f00810061000000060047
:020000040000fa
:10417000ffff3700ffff3700889fbe008a9fbe0009
:104180008c1f78000080210001102000f3ff070041
:104190000004be0050052000a10a20005eff0700b9
:1041a0000800be0081ff07000004e00001003a00a3
:1041b000efff070032232200130120000800be0099
:1041c0008dff07000046780062054400e0854c0042
:1041d00062562500430420000a00be0086ff070047
:1041e000000666000c04e00001003a00e0ff070052
:1041f0004eff07000800be0060ff07000004be007d
:104200000a00be005dff07003223220013012000d8
:10421000820f5400838f5c0005003a00625625002f
:1042200043042000820f5000838f580001003200a9
:10423000d0ff07004f0678004f05be004f04be00b8
:1042400000000600889fbe008a9fbe0000802100fb
:1042500001102000c1ff07000005be00500520002e
:10426000a10a20002cff07000a00be004fff070034
:104270006044b8000004e00002003a00bcff070000
:104280006044b8000800450089804d000801be0068
:1042900059ff07000004e00001003a00b4ff0700e6
:1042a00062044400e0844c0000402000800f540071
:1042b000e08f5c00f3ff3a001cff07006044b80089
:1042c0000800450089804d002cff0700880f500032
:1042d000898f580001003200a6ff070062044400e5
:1042e000e0844c0000402000800f5400e08f5c0010
:1042f000f3ff3a004f05be004f04be000000060069
:084300009dff0700cfff37000d
:020000040000fa
:10430800960900000400000082000000ffffff0083
:10431800ff0000002a0900003200000080000000b1
:10432800000800001c00000080000000000a0000d7
:104338003000000080000000460800009a000000dd
:10434800800000001c08000012000000800000002f
:104358007c0900000e000000800000003a08000000
:104368000a000000800000005c0900002000000036
:1043780080000000440800000200000082000000e5
:10438800ffff0000e00800004a0000008000000075
:104398002e0800000c000000800000008a090000c0
:1043a8000c00000082000000686a6c00747a4c00ff
:0c43b800006343006e5b0000000000008a
:020000040000fa
:1043c40000102300100888000621ef006821ef0088
:1043d4006a21ef006e21ef007021ef007221ef00df
:1043e4007421ef007621ef007a21ef007c21ef00a9
:1043f4007e21ef0010002000a20920008107200088
:10440400131020008149780082497800804978009f
:104414007205200061042000031020008149780007
:1044240082497800804978000001ab00feff3a0021
:1044340000a1ab00feff3200000006004c22ef009a
:104444004ea2ef000003280080128800000006003e
:10445400889fbe00cf80de00fef00700020020002f
:10446400a3472400b7f0070002402200437724004a
:104474003bf107000004be00601280008000eb00e6
:10448400f7f007000801be00f0f007000000e000ac
:10449400f9ff35004c22ef004f04be000000060077
:1044a4008421ef008e21ef0070012000000c8800b1
:1044b400f0ff2e00500c88005620ef005820ef002b
:1044c4005a20ef006e20ef007020ef007220ef0002
:1044d4008621ef009021ef0040002000400c88006e
:1044e400f0242e00900c880000000600e10f50001c
:1044f40003003200e30f500004003a0002003700ca
:104504001dfd070001003700bcfc0700100005007a
:10451400c0952000800778007800400000018800e2
:0c4524000000060020428800ffff370066
:020000040000fa
:0c453000dcff0700acfa0700a2ff370018
:020000040000fa
:020000040001f9
:0457f000ffc30000f3
:020000040000fa
:020000040001f9
:0457f400fff60000bc
:020000040000fa
:020000040001f9
:0457f8005f38000016
:020000040000fa
:020000040001f9
:0457fc003f3d00002d
:00000001FF
