:020000040000fa
:080000000002040000000000f2
:020000040000fa
:1000080002240000062400000a2400000e24000038
:1000180012240000162400001a2400001e240000e8
:1000280022240000262400002a2400002e24000098
:1000380032240000362400003a2400003e24000048
:1000480042240000462400004a2400004e240000f8
:1000580052240000562400005a2400005e240000a8
:1000680062240000662400006a2400006e24000058
:1000780072240000762400007a2400007e24000008
:1000880082240000862400008a2400008e240000b8
:1000980092240000962400009a2400009e24000068
:1000a800a2240000a6240000aa240000ae24000018
:1000b800b2240000b6240000ba240000be240000c8
:1000c800c2240000c6240000ca240000ce24000078
:1000d800d2240000d6240000da240000de24000028
:1000e800e2240000e6240000ea240000ee240000d8
:1000f800f2240000f6240000fa240000fe24000088
:1001080002250000062500000a2500000e25000033
:1001180012250000162500001a2500001e250000e3
:1001280022250000262500002a2500002e25000093
:1001380032250000362500003a2500003e25000043
:1001480042250000462500004a2500004e250000f3
:1001580052250000562500005a2500005e250000a3
:1001680062250000662500006a2500006e25000053
:1001780072250000762500007a2500007e25000003
:1001880082250000862500008a2500008e250000b3
:1001980092250000962500009a2500009e25000063
:1001a800a2250000a6250000aa250000ae25000013
:1001b800b2250000b6250000ba250000be250000c3
:1001c800c2250000c6250000ca250000ce25000073
:1001d800d2250000d6250000da250000de25000023
:1001e800e2250000e6250000ea250000ee250000d3
:0801f800f2250000f6250000cd
:020000040000fa
:1002080000000000300300006a0300004c030000f7
:10021800860300000000000000000000000000004d
:1002280000000000000000000000000000000000c6
:1002380000000000000000000000000000000000b6
:1002480000000000000000000000000000000000a6
:100258000000000000000000000000000000000096
:100268000000000000000000000000000000000086
:100278000000000000000000000000000000000076
:100288000000000000000000000000000000000066
:100298000000000000000000000000000000000056
:1002a8000000000000000000000000000000000046
:1002b8000000000000000000000000000000000036
:1002c8000000000000000000000000000000000026
:1002d8000000000000000000000000000000000016
:1002e8000000000000000000000000000000000006
:1002f80000000000000000000000000000000000f6
:1003080000000000000000000000000000000000e5
:1003180000000000000000000000000000000000d5
:1003280000000000000000000000000000000000c5
:1003380000000000000000000000000000000000b5
:1003480000000000000000000000000000000000a5
:100358000000000000000000000000000000000095
:100368000000000000000000000000000000000085
:10037800000000000000000008030000000000006a
:100388000000000000000000000000000000000065
:100398000000000000000000000000000000000055
:1003a8000000000000000000000000000000000045
:1003b8000000000000000000000000000000000035
:1003c8000000000000000000000000000000000025
:1003d8000000000000000000000000000000000015
:1003e8000000000000000000000000000000000005
:0803f8000000000000000000fd
:020000040000fa
:100400000fc320000e7f22000e01880000000000b4
:10041000000020000000e000020032000001200087
:100420002002880014000700c60007000000e0005a
:1004300003003a00c015220001002000020037002e
:100440000000200001002000810f70000100320038
:1004500014000700000020000000e000020032004d
:100460000000020000000000ea1d02000000000081
:100470000040da000000fe004440a900600e2000a9
:100480000000e000030032000020200090018800fe
:100490004440a800000006008a1f78008b1f7800e7
:1004a00000000600a1028800800478000000eb0034
:1004b0001f003700e284440054a0b4009905ba003c
:1004c000e284440054a0b4009906ba00e2844400d7
:1004d00054a0b4000006eb00476fde00fd07b20039
:1004e000ae018800636ce10003003a00eaff0700f8
:1004f0000000eb000e003700606ce10008003a00dd
:10050000004deb000a05e800020039003420ec0041
:100510000af0a0008b05e900f9ff3e000400370057
:100520006168e100010032000086eb000b0007006b
:1005300019c7ba001905ba000e04e00003003a001a
:100540000a00e000dbff3a0000000600fe07b200f0
:10055000ae0288008a047800f5ff37000cd0a300b3
:10056000e20f4d001c00390089027800354dba00b9
:100570000a05e800020039003420ec000af0a0006f
:100580008b05e9000f003200254dba000a05e8008e
:10059000020039003420ec000af0a0008b05e900cd
:1005a000080032000c00e0000600320015cdba0051
:1005b0000a05e800020039003420ec000af0a0002f
:1005c0008b05e9008984e80054a0b4000b00e0002a
:1005d000e2ff3a00000006009902ba00055d7800cb
:1005e0008b05e900f7ff3200c82ade00055d7800c0
:1005f0008b05e900f3ff32000c00e000f1ff320050
:1006000019ddba00eeff3700000000000000000016
:100610003600f800809fbe00829fbe00849fbe000f
:10062000869fbe003200f8003400f8001000200061
:10063000a00188000020200090018800bf0807006a
:100640003400f9003200f9004f03be004f02be0033
:100650004f01be004f00be003600f900004006000a
:100660003600f800809fbe00829fbe00849fbe00bf
:10067000869fbe008020a9000000eb008d0f0700c0
:100680004f03be004f02be004f01be004f00be0030
:100690003600f900004006003600f800809fbe00da
:1006a000829fbe00849fbe00869fbe007c0f070015
:1006b0008040a900100020007e0f07004f03be00fd
:1006c0004f02be004f01be004f00be003600f900d1
:1006d000004006003600f800809fbe00829fbe00ea
:1006e000849fbe00869fbe008060a900200020007d
:1006f000700f07004f03be004f02be004f01be0047
:100700004f00be003600f900004006003600f80039
:10071000809fbe00829fbe00849fbe00869fbe0059
:100720008080a90030002000620f07004f03be0048
:100730004f02be004f01be004f00be003600f90060
:100740000040060000000500889fbe008a9fbe0092
:100750008c1f78006b0007007200330003866c006a
:100760006450e1002e0032006420e10033003200ca
:100770006150e1002f0032006120e10031003200c1
:1007800085855500eb07b000090020000804200013
:10079000050037000804440089844c000a00310039
:1007a0000603430087834b000001530081815b00f7
:1007b000f8ff33000203be000800a0000804440054
:1007c00089844c00f6ff3900c639dd0083017300cf
:1007d00001003200130020008904d1000884d300f6
:1007e0000998a300050032000800a7000300a0003c
:1007f0008904d1000884d3008b05e8008904d10066
:100800000884d3000001eb000281d200170007002a
:1008100001f0a1000cf0a70001f0a0004a00370091
:100820006420e1004c0032000801be000200be005e
:10083000f7ff37006120e100470032006000b80098
:10084000f3ff37000000200001f82700f0ff370019
:1008500014002000770037004f89de008201780005
:100860008f0037006011b8009d0037008100200024
:10087000618055000b003d000b00200061fe2f0041
:100880000100e1001d0034008281710061016400fb
:100890008904d1000884d3000000e800faff3a0080
:1008a000710020006100640003007000020060001d
:1008b0000900320061044400e0844c000988a5006e
:1008c000050032008b05e8006808e10002003a00ec
:1008d0008904d1000884d300f20f20000258e100ff
:1008e00005003d00c75ddd00f907b2008980750095
:1008f00008007800000006000bf827008b00780045
:10090000000005000004be00a40007000003be00b4
:100910000405be000200be00a0000700844f750061
:10092000000006000200be006450e1000500360031
:100930006420e100020036000968a30001003a00cb
:100940000800be000160a0004f0678004f05be0001
:100950004f04be0000000600f0ff2f00f1ff27004b
:10096000f9ff3700889fbe008a9fbe008c1f780069
:10097000e4ff0700ebff330003866c006450e100e6
:10098000240032006420e100270032006150e100c1
:10099000220032006120e100210032008b854200fc
:1009a000eb07b1000134b800003ab8000804420077
:1009b00089844a00013ab8000030b80088804000bd
:1009c00009014a0004003300000040008180480013
:1009d000020149008b05e900c909dd0083017000af
:1009e0000100320013002000c814de004814dd00ae
:1009f0004709de001200b200c808de00088470005b
:100a00009aff070001f0a1000cf0a70001f0a00080
:100a1000cdff37006120e100cfff32000801be00aa
:100a20000200be00f7ff37006150e100fcff3a0012
:100a3000c9ff3700889fbe008a9fbe00841f7800d0
:100a4000b0ff07004f00780011003300f0ff2f00c7
:100a5000838f6c0006003b00040565000a00a700b8
:100a60000800370009f0a600100020000800370039
:100a7000820f5400838f5c000300390010002000b7
:100a800001003e000000200009f0a7000000ea007d
:100a90004f05be004f04be000000e000000006004d
:100aa000881f7800030478000300e00007003d0081
:100ab00060001000e080180060011900e08119005a
:100ac00002003b0001f02d00030037000400070086
:100ad00008f0a70001f0a0004f0478000000060015
:100ae000889fbe008a9fbe000082700004027100d1
:100af00004827100260032000004be000200be0025
:100b00006011b8006b092000950220000182cf001f
:100b10000a0039000541b1000082cf00070039000a
:100b20000541b1000982cf00040039000541b10040
:100b30000882cf00010039000541b1000542520092
:100b4000120032000a003b008281710061016400e2
:100b50008100d1000080d3008984d3000884d300b1
:100b60008b05e8000442e800f7ff3a000700370071
:100b70000804440089844c0000004800818048003b
:100b80008b05e9000442e900f9ff3a0037ff07004e
:100b90004f05be004f04be0000000600c70ade007d
:100ba000f107b200f50fb20008003200e1cf4200b9
:100bb000020032000170a00024000500810f7000c7
:100bc000010032000408050044000500810f700098
:100bd00002003a00140005008502e9000000400010
:100be00081c04800fcff3b000170a000240005000c
:100bf000020037000204e0000b003200810178009f
:100c00000002780030417800b14f5100f9ff320006
:100c10001000200014427800934f5200030031006e
:100c20000080eb00000006000000eb000000060062
:100c3000900178000200e00002003a000308e90099
:100c4000050037008080eb001304e0000200320052
:100c50000308e8009300fb00010078000000060094
:100c60000200fa00f0bf9f00ea8157003fb99700e9
:100c70008f80e90080612000020007000080fa00f8
:100c8000000006001200fa00889fbe008a9fbe0086
:100c90008c1f780002047800a0b79f00b1b79f00b6
:100ca0008300780078805700d20007000000eb0036
:100cb000e0b79f00d8b79f00000478005fb69700a8
:100cc0009c85fb008b04fb008b05ea00cf5dde00fa
:100cd00009007800b30007000000e0001b003200ac
:100ce0006fb097000000e800e0b79f0012002000fe
:100cf0008000eb003fb09700afb197000300010008
:100d0000000578000a007800a60007000000e00057
:100d1000f3ff3a006fb09700e10f45000800320082
:100d20000000e900e0b79f000001eb008a007800b6
:100d30003fb09700afb197000300010022003700d9
:100d40000000e900e0b79f001f00370050022000bc
:100d5000808f540002003a000b05e90018003700ac
:100d60000b057800160037006fb097000000e80010
:100d7000e0b79f00120020008000eb003fb097001a
:100d8000afb1970003000100bc00fb00810f5000d1
:100d90000b003200e10f40007c003200efb0970002
:100da0008100e900e1b79f000001eb0080007800be
:100db0003fb09700afb19700030001007300370008
:100dc0000a05e900e8ff3b005fb097008b05400093
:100dd000dbb79f0050022000808f540003003200d8
:100de0000900e000b5ff3a00680037009b4078003a
:100df0000040eb00a2c2b30082cf500003003a00d3
:100e00008b05e800dbb79f0001407800a0f79f004a
:100e10000000eb0080bf9f000b0037000fb8970069
:100e2000f2ff2700820f5000050032006a01b9006e
:100e300000fd2f00020040000100400080bf9f0025
:100e40000a05e800dab79f005fb597009a4478007a
:100e50008900fb0000fd2f0001004000e90f500059
:100e6000eeff3600c0b42000560007000000e0008e
:100e7000030032000a05e800dab79f0001003700de
:100e80008044eb00b9f79f005fb0970081c6b300c4
:100e900081cf540004003a0090cf14000b003a00b8
:100ea000e6c0500006003700c1c6b30081cf540031
:100eb00006003a0090cf140004003a00e5c040005c
:100ec000b1f79f000000e800d0b79f005fb0970027
:100ed0009000fb0030b520003a0007000000e00061
:100ee0001a003a006fb097000000e800e0b79f00da
:100ef000120020008000eb003fb09700afb19700d8
:100f00000300010080047800090078002500070034
:100f10000000e000f3ff3a006fb09700e18f44005b
:100f2000080032000000e900e0b79f000001eb007c
:100f3000890078003fb09700afb19700030001002f
:100f4000020037000000e900e0b79f007c805700f6
:100f50002a0007000000e00003003c000800e00059
:100f60000a003a00080037004ff097000004e00044
:100f7000010032000804e8005fb097000000e800bc
:100f8000d0b79f004dff37000004780008007800bc
:100f90004f0678004f05be004f04be000080fa00e7
:100fa000000006006900e100040035006d00e1006a
:100fb000030034000002b10001003200000005000f
:100fc00010000500020037000304e00006003200b4
:100fd0000001780002007800b041780081cf510014
:100fe000f9ff3a00010037000001eb000200780031
:100ff000000006000108780000000600881f780045
:10100000000478000040eb00005498003800900085
:101010001040780031c5b300814f50000b00320002
:1010200004003c0051c2b300814f500028003a0038
:1010300008003700b1c5b300814f500020003200d6
:10104000f8c04000814f500021003a0011002000fc
:101050001c003700480090000000e80040049800a1
:1010600098017800120020008000eb00180090002a
:1010700003000100800078001000200052022000d0
:10108000828f50001300320048009000e18f400032
:10109000070032000000e900400498009801780041
:1010a0000001eb0018009000030001000800370069
:1010b0000000e900400498000100780005003700b6
:1010c0008080eb000800780028000700010037004e
:1010d0000000eb004f04780000000600800178005b
:1010e00002003700815978000201e9000200e000a7
:1010f000fcff3a0000000600110037008001780074
:1011000010427800d5c2b300d3cf120008003a00d5
:10111000814f520003003e00a041900083cf500059
:1011200010003600e3014000630151000300370066
:10113000814f52000b0032000201e90003007800e9
:10114000e20f5100edff3e0003003700b0cf10006a
:10115000050032000201e9000200e000fbff3a0056
:10116000000005001000050010000500f087470092
:10117000889fbe008a9fbe008c9fbe008e1f780095
:101180000004be00f84d90000046eb000900e000ae
:1011900025003d00380090000000e8003004980071
:1011a00090407800ccef9f00e2c5b30082cf5000a2
:1011b00003003a000000e80030049800c1ef9f00ef
:1011c000b8069000d0c5b3009d4f100002003a0051
:1011d0000d00e800010037000d007800d105200067
:1011e00078ff0700c0b79f000000eb00cfb097006a
:1011f0000100e000ca0032000d8550000046eb00ff
:10120000e20f5500080034000a81e9000d00e800f3
:10121000d1022000cc0007001cc0b3000000e00099
:1012200001003a000046eb00680090000000e0007a
:1012300004003c00100020000900e0000100320022
:10124000f0ff2700cbc6b2008b85fb008b05e900c1
:10125000cf5dde0050049800684890000004e00074
:101260000c003a00280090000b00e000050032005e
:101270000080e9002004980010007800b0b79f00bb
:10128000040037000080e900200498001000780076
:10129000d0b79f000047eb00fbb79f00890578009f
:1012a000660037000b00e000030034000d007800fa
:1012b0003cff07001f0037000b00e0001f0032005a
:1012c0000c04e0000d003a004fe997000204e00032
:1012d00005003a000a0178008d007800380090007f
:1012e000990007000c0037000a0178008d00780093
:1012f00038009000940007000e0037004fe8970078
:101300000004e00007003a000a0178008d00780030
:101310003800900078ff07000000e00007003a0066
:101320005d0037000a0178008d00780038009000d9
:1013300071ff07000000e00057003a00ffb097007f
:101340000100e00009003a00684890000004e00055
:1013500039003a005fb197000d597800d2b79f006d
:1013600010c0b3000054980033003700cde79f0051
:101370008d06fb008d04780009f0a7008904ea00bf
:101380008904ea00cf4cde0005003a000d00e000c1
:1013900003003a007c805700750007008004e800d5
:1013a0007b8257001e0020008b0278008a0578009f
:1013b0000905780084047800100037000e07e90062
:1013c000c900fb0048009000e18f40000900320096
:1013d0000000e90040049800980178000001eb004b
:1013e0001800900085bf9f00030001008fba97008e
:1013f000020037000000e900400498008e0f5500fd
:10140000eeff35000b0578008505780068489000f0
:101410000004e00005003a003fb097000d18780086
:10142000b0b79f0010c0b30000549800680090004f
:101430000000e900600498002ec0b300d8009000be
:101440008100e90051049800480090000d0033002d
:101450000000e80040049800980178001200200085
:101460008000eb0018009000030001008006780067
:10147000e18f46008bff3a008b047800ffb59700a0
:101480002d0037008b047800ffb597000000e800be
:1014900040049800280037008b047800ffb59700bf
:1014a000480090000000e90040049800980178008e
:1014b0000001eb008d00780018009000030001008f
:1014c0000900e00002003200e24f57000500320040
:1014d0000e07fb000080eb0011003200100020001e
:1014e0000f003700684890000004e00007003a0051
:1014f0000b00e00003003200bfb097008008eb0053
:10150000020037005fb197000b49780010002000ff
:101510000900e00002003d00cfb0970031049800c0
:101520004f0778004f06be004f05be004f04be00b7
:101530000f01b10000000600480090000000e90023
:1015400040049800deff370003003700b0cf1000e2
:10155000050032000201e900800178000200e0008d
:10156000faff3a00000005000300780000000600c2
:1015700080007800010178003104e000fdff3a00ae
:0815800000005100000006000c
:020000040000fa
:101588001201000000020000020000000008000034
:10159800d80400000a000000000100000102000059
:1015a80000010000090200004300000002010000e1
:1015b80000c0000032090000040000000001000023
:1015c80002020000010000000524000000100000d5
:1015d80001040000240200000205000024060000a7
:1015e80000010000052400000100000001070000c0
:1015f80005810000030a0000000200000904000041
:1016080001000000020a00000000000000070000be
:10161800050200000240000000000000070500006d
:1016280082020000400000000000000004030000e7
:1016380009040000340300004d00000069000000a8
:1016480063000000720000006f00000063000000eb
:101658006800000069000000700000002000000021
:1016680054000000650000006300000068000000ee
:101678006e0000006f0000006c0000006f000000aa
:101688006700000079000000200000004900000009
:101698006e000000630000002e0000001a03000026
:1016a80050000000720000006f000000640000009d
:1016b80075000000630000007400000020000000b6
:1016c8004e000000610000006d0000006500000091
:1016d800d68a00001a8b00001e8b0000528b000077
:1016e8002573000000360000340d00000a000000d9
:1016f80052450000414400005f4d0000454d000088
:1017080000530000544f0000500d00000a00000074
:101718004552000041530000450000004a550000b2
:101728004d50000000550000504700005241000095
:1017380044450000004e0000657800007452000027
:0c1748006f7700000d0a00000000000098
:020000040000fa
:101754000080fb000181fb0000004000000141000b
:101764004311dd0003c020000301410012f0a10079
:101774000104e00002003a00a1af2000010037009c
:1017840001b020008230780012e0a1006401410021
:1017940012e0a000000006008157800080c0b30062
:1017a400e78f50000b003e008057800011c0b3004b
:1017b4000e48e20005003200e180200091407800ec
:1017c400e1cf500003003a0021c0b300e2802000c2
:1017d40001497800825780008080fb00810051001d
:1017e40081578800015880008048780061b120004a
:1017f40081408800715780000108a300070032006f
:101804000f00370061578000824080003159780012
:1018140082408800615788000040e9000004e0002d
:10182400f8ff3a0000000600615780008240800003
:101834003159780082408800615788000040e900ef
:101844000004e000f8ff3a000000060000c8b300fe
:1018540061b02000914f100030003a00e0ae20004b
:1018640001ccb3000148780091b020009140780089
:10187400e2cf500008003200e3cf500017003200de
:10188400e1cf500024003a0040ac280060578800a3
:10189400200120001c00370081b020001104e0006a
:1018a4001b003a001180fb0000004000c1b6280074
:1018b400e1007800615788006157800000af200084
:1018c400a140900001487800615780000000e800c2
:1018d400b1409000014878000000060081b020006b
:1018e40022c0b300914f110009003e001180fb009b
:1018f40000004000e1b62800e1007800615788004c
:10190400605780001080fb008057880000000600ac
:101914000048eb00000006000048eb000000060051
:1019240060b120000048eb008000e8008048eb0034
:1019340061b0200091407800ffc060008180fb000e
:10194400e18f50000b003200e28f50000d00320096
:101954000100e00024003a00715780000170a000eb
:10196400715788000348e2001f0032001014a000e1
:101974001d003700705780000070a0007057880069
:1019840019003700705780000070a000705788005d
:10199400a0b020001004e0000600350010407800dc
:1019a4006f4060000080fb0000004000a1af2000f9
:1019b40005003700104078006f4060000080fb0095
:1019c4000000400001b02000e10078000040280041
:1019d40091006000808f500003003a0011c0b300f2
:1019e40060b1200001487800705780000078a3009f
:1019f4000800320060b120006057880070578000f2
:101a04000000a0007057880021c0b30000af200080
:101a140001487800000006002a24ab0011003200bf
:101a2400504080001041900001c8b300814f510024
:101a34000b003a00015880001141900041c8b300e6
:101a4400814f510006003a00c1c0b3001140980014
:101a540051408000114090000074a0009040980014
:101a64002a24a90000082000502088000000060055
:101a7400881f780000588000100478004e44de006f
:101a84006144640001b020000020a20080087800b6
:101a940030408000e80f500009003a0080b0200078
:101aa4001080fb00f007b200b02088000001200085
:101ab4001604e20001003a00400020003040880093
:101ac4000fc8bf00e14f500015003a0061b120007b
:101ad40000588000110098002fff0700e1802000cb
:101ae4009140780000588000e2cf500002003a0094
:101af40041c0b3000400370081c4b3000804e0000f
:101b04000100320081c0b3001140980001588000e8
:101b1400114090000074a00090409800120037001b
:101b240040af20001004e0000e003d00e300400040
:101b34009181fb00640040001081fb004811dd002e
:101b440002817100050032009180fb001080fb00cf
:101b54004800dd00008070000000010040af20005c
:101b64001074a1000f68ef004f0478000000060015
:101b74000468ef000001eb008200780040072000b9
:101b84000f0507000284a90000012000002088003e
:101b94000968ef00000006000284a800000120008c
:101ba4005020880010c0b30004e8b7000968ef00b3
:101bb4000001eb0082007800500720000005370088
:101bc400889fbe0080b0200090407800e1cf500094
:101bd4000f003a000080e900104078007f40600068
:101be4000b003a00705780000070a0007057880006
:101bf40070b0200032c0b300904f110003003a00cf
:101c04003080200001487800010037000368ef00ad
:101c140080b020001004e0008f003a000080e9004a
:101c2400104078007f406000e24f50008a003a0084
:101c3400a0b0200010417800ef406100860032001f
:101c440010417800ef4061008180fb00e28f50007a
:101c540081003c000102200032408000810f5100cd
:101c64007d003a00715780000170a0007157880010
:101c74001004e0000b00350010417800ef406100d3
:101c84008180fb0081804000a2af20006284780044
:101c9400104078006f4060000080fb0031b12000ec
:101ca4000a00370010417800ef4061008180fb009a
:101cb4008180400002b020006284780010407800e7
:101cc4006f4060000080fb0001b12000e144780017
:101cd4000908a30002003a000820a100010037000f
:101ce4000820a000a0b020001004e0000600350089
:101cf400104078006f4060000080fb00000040004e
:101d0400a1af200005003700104078006f4060004c
:101d14000080fb000000400001b020008830780003
:101d240070b0200031c0b30090cf100016003a000c
:101d34001800e0000f003d00630040001004e000c4
:101d44000500350010407800ef4060008180fb0002
:101d540032b120000400370010407800ef406000ea
:101d64008180fb0002b1200062c078000014a00052
:101d740000f178009840900040c8b30000c07000a3
:101d84001044980034003700880078000120a20035
:101d9400114090001100e00007003d000074a10014
:101da4000064a00090409800220020005000200011
:101db40083040700020037000064a00090409800ec
:101dc4000918a30002003a001800e00017003d00c3
:101dd400a0b020001004e000050035001040780099
:101de400ef4060008180fb0032b120000400370026
:101df40010407800ef4060008180fb0002b12000b9
:101e040062c078000014a10000f17800184090002e
:101e1400b043b200104498002200200088007800eb
:101e240050002000660407000300370018409000ab
:101e3400b043b20010449800a0b0200010407800d5
:101e44006f4060000080fb0000004000a1422000c1
:101e5400010040001014a1004f04be000000060061
:101e6400705780000070a000705788002c24ef0089
:101e74002e24ef00020320008000eb0000c02000ad
:101e840095fc07001424a8000000eb008040eb0040
:101e940002b120000171780032b120000171780094
:101ea4000000e800e30f5000f8ff3a002200200091
:101eb4008000eb00e0b0200087fc07001424a90098
:101ec40080c02000005888006800500050408800fe
:101ed4006040880080b0200010417800818020009c
:101ee40082487800000120000848e2000500320022
:101ef40012002000818020000200780030040700d6
:101f040000022000304088000000060060b020007d
:101f140001c6b30010c060003b003a0070b020005e
:101f24001080fb008000eb00eb0f5000e08f5800a6
:101f340035003e0000600100150037001500370031
:101f440031003700130037002f0037000600370038
:101f54000b003700280037000b003700090037005a
:101f64000d0037001b003700705780000070a00080
:101f74007057880080002000304088000000060070
:101f840032fe3700b6ff370080802000060037009d
:101f940063fe37000aff3700a0b020009080fb00ea
:101fa400e0b0200000804000605788007057800037
:101fb4000000a0007057880011c0b30000af2000db
:101fc40001487800705780000070a00070578800a6
:101fd40000000600705780000070a0007057880051
:101fe400a0b020001080fb00e1b0200082b02000ef
:101ff40092707800000006000001eb008200780077
:1020040020002000ee030700000006009ec0a90087
:102014000ea4ef000aa4ef002a24ef002c24ef0002
:102024002e24ef0020002000302188002824ef0017
:102034000644a900f0092000802088006020880060
:1020440002c4a8000804a80000c020004800de0064
:10205400c02088000000eb00c200dd0002c02000a8
:10206400810041008008eb00b11078000000e80016
:10207400ec0f5000f8ff3a001424a8001624ef00d7
:1020840014a4a9001424a900800020005020880072
:10209400e0ae20000048eb0040af20000048eb0019
:1020a4000000e800904078000048eb000000e800e1
:1020b400904078000048eb000a64ab00f2ff3a005d
:1020c40010c0b30016e8b70017e8b7000268ef00c5
:1020d4000068ef000468ef00e2af200081af200049
:1020e4000000eb008001eb000029eb008028eb00ee
:1020f40004b120000372780034b120000372780028
:102104000000e800e30f5000f6ff3a0080c0200012
:1021140000588800d00020005021880060b02000c2
:102124001060880081c0b30000c02000014878001e
:102134000000e80041c0b300014878001074a0001a
:102144000868ef001828ef001a28ef000968ef006c
:102154000628ef0000000600889fbe008a1f780052
:1021640000447800814478000985fb000a38a30004
:10217400030032008040eb000840780074fd070043
:102184000a28a3000300320011c0b30008407800fd
:102194006ffd07000884fb0008044400a0422000ef
:1021a40009707c004f0578004f04be000000060053
:1021b4000082fb000104e00003003200040242003c
:1021c40005b020000200370004024200a5af200041
:1021d40065027a008002eb000400e0001700320080
:1021e40012029800034a7800144190000244b2009d
:1021f40012429800144190000234a0001242980048
:10220400144190000274a000124298000080fb0068
:102214000104e0000200320001b020000100370098
:10222400a1af200000004000008140006100780060
:102234000020a200000978008402780005007800dc
:10224400000006000004e00014003a0081c0b3005e
:1022540060408000014878006040800061b0200048
:1022640011009800c1c0b300114098006140800083
:10227400114090000074a0009040980041c0b30049
:1022840000588000114098000158800011409000cf
:102294000074a00090409800000006008180fb00bc
:1022a4000080fb0000004000008040004300dd008f
:1022b40002c02000820140001342900041c8b300d4
:1022c4000142720094419800640040000200400002
:1022d40010419000814071001140980000000600f8
:1022e40014a4ab00170032000080fb000000400083
:1022f40001b02000610178001203be000404200034
:10230400060362008003eb000689be00e102780048
:102314001501be000260a200828abe00610178003d
:102324000220a20082307800924190000344b2005f
:1023340013419800610078009040900004c2680046
:1023440014409800000006001424ef000c24ef0051
:102354000628ef00000006000608e20011003a001b
:102364001424ef000c24ef0020002000302188000a
:102374002824ef000644a900f009200080208800ea
:102384006020880002c4a8009ec0a8000100370095
:102394001404a8001404ab00fdff32001000200058
:1023a40030408800000006001648e2002b003a0086
:1023b40010c0b30016e8b7001748e20027003a003f
:1023c40017e8b7000fc8bf00e24f50000a003a00f8
:1023d400005880000048eb0081c4b300005880001e
:1023e4001140980001588000114090000074a00032
:1023f4009040980000000600f3802000934178008c
:10240400e1cf510015003a001468ef0082c0b30018
:1024140050408000024878005040800061b02000a5
:102424001100980044c0b300144098005440800048
:10243400144090000074a0001042980040812000d5
:1024440003487800604080000248780060408000c3
:102454001100980001c8b300114098000000060064
:10246400504080009040780052af20001282fb0060
:102474000200e8009081fb00c819dd0083017200ae
:102484000182fb00830f5200020036009280fb00a1
:102494001080fb0052af20001282fb000200e80013
:1024a4009081fb00c819dd00830172000182fb00ea
:1024b400848151001242780003497800c819de0073
:1024c40010417800034878000000eb000e0037004c
:1024d40024af20009482fb008401e8001381fb00f8
:1024e4004811dd000281720065b120006559780051
:1024f40094427800024a78004811de0013427800c2
:10250400824978000000e80080cf5000f0ff3e00d0
:1025140050af20001080fb0061af20009180fb00d1
:10252400c808dd0081007000604080000f003200a8
:1025340081c0b300014878006040800062b120008f
:10254400120098005240800012e8a30001003a00f3
:1025540081c4b30011409800614080001140900094
:102564000074a000904098000000060081c0b300f1
:10257400014878006040800061b02000110098009c
:1025840041c0b300114098006140800011409000a8
:102594000074a0009040980071af20009181fb006e
:1025a4000100e8001081fb004811dd000281710088
:1025b400050032009180fb001080fb004800dd0024
:1025c400008070000000010040af20001074a100e2
:1025d4000148e20001003a0073ff07000000060012
:1025e4000fc8bf00e24f500001003a009cff3700c3
:1025f4000f68ef001448e2000d003a0081c0b300f8
:1026040060408000014878006040800061b0200094
:1026140011009800c1c0b3001140980061408000cf
:10262400114090000074a000904098000000060043
:102634001468ef00000006000268ef000068ef0075
:102644000fc8bf00e24f50000a003a0081c0b30037
:1026540060408000014878006040800061b1200043
:102664001100980081c4b3001140980061408000bb
:1026740016003700c1b020001181fb000100e80002
:102684009081fb00c819dd0083017100825780002e
:10269400828f5100050031009180fb001080fb0007
:1026a4004800dd0000807000805788003afc070075
:1026b40061b12000005880001100980081c4b3006b
:1026c400005880001140980001588000114090008b
:1026d4000074a000904098000000060014a4a90013
:1026e400705780000078a3001f003a0040af20001c
:1026f4001004e00008003d0020c0b3000fe8b7005c
:102704000048e20001003a00cbff07001768ef0021
:102714001668ef000000060081c0b300604080002e
:10272400014878006040800061b0200011009800ea
:10273400c1c0b30011409800614080001140900076
:102744000074a0009040980041c0b300005880007d
:102754001140980001588000114090000074a000be
:10276400904098000000060061b020001104e000d1
:102774000a003d0010c0b3000fe8b7000248e200b1
:1027840001003a00acff07001768ef001668ef007d
:102794000148e20013003a0003ff370020c0b300f1
:1027a4000fe8b70082c0b3006040800002487800a0
:1027b400604080001100980041c0b30011409800af
:1027c40061408000114090000074a0009040980087
:1027d4001768ef001668ef000148e20001003a00b4
:1027e400f1fe0700000006000e68ef000168ef002c
:1027f4000268ef000068ef001468ef000f68ef0054
:1028040000b0200010017800924090000174a100f3
:1028140011419800900078000120a200010878007e
:10282400114190000274a100924098001020a2006f
:1028340061408000114090000074a1009040980015
:10284400e0ae20000048eb000000eb008057880059
:1028540041af2000804878008100e80011417800f1
:10286400804878008100e8001141780080487800b1
:10287400a6fd07000001eb00820078003000200074
:10288400cf01070095ff3700d0c2b30015e8b700a9
:1028940012c8bf00b00fb20014003a0012c8bf0043
:1028a400c00fb20001c02000010040005040880069
:1028b400800078000120a2006140880002c023004b
:1028c4001001610001402300810f510006003a000d
:1028d4001000900061b0200007000900b058780093
:1028e4008000b100c0ff37003dff370012c8bf00b1
:1028f400b00fb200e80f500001003a005cfc070082
:1029040000000600c0408000d1408000610040000b
:10291400e0804800c0408800d14088000448e200bc
:1029240004003a000968ec000948e20001003a009a
:1029340009e8ef0000000600881f7800304080009e
:10294400e10f500007003a0014c4ab0005003a0040
:102954000aa4ef000c04a8000c84a80020002000a6
:10296400304088000084ab00050032000284ab00d4
:102974000300320000012000002088007cfc0700d6
:102984000824ab005f003a000a04ab0008003200e0
:102994000c04ab00060032009cfd07009ec0a8009a
:1029a40040002000304088001000200050208800a3
:1029b4000a84ab00030032000c84ab000100320037
:1029c40075fc070000c4ab000300320000042000c3
:1029d40000208800cbff07000a44ab000e00320041
:1029e4000c44ab0004003200120020008000eb0015
:1029f40030072000720107004000200050208800aa
:102a04001548e200010032001568ed001548e200a7
:102a140001003a0064fe07000ae4ab000300320040
:102a24000ce4ab0001003200fbfb07000a24ab00fe
:102a3400090032000c24ab00070032001200200011
:102a44008000eb00f0ff27005d0107000ea4ef00fb
:102a5400200020005020880030408000e30f500008
:102a6400280036000c64ab002600320048c0b300d6
:102a74000a64ab00230032009020800012e8b70003
:102a840012c8bf000080fb004400de0013e8b7005a
:102a9400800020005020880012c8bf000038a30026
:102aa40004003a0013c8bf000080fb0031b12000cd
:102ab4000300370013c8bf000080fb0001b12000f1
:102ac40061417800614161000204a200e1417800a3
:102ad4000304a10002c17100827078001348e2006f
:102ae40002003a0068ff0700040037000001eb0011
:102af4002181200020072000310107000844e9005b
:102b0400dbff3a008ec0a9004f04780000000600e5
:102b1400c0408000d1408000c2408000d34080008b
:102b2400820f5000838f5800f9ff3a00000006001e
:020000040000fa
:102b340060b0200010417800ff406100e1cf5000f8
:102b440059003a0002c6b3009040610000c2b300cd
:102b540080cf500054003a00a0b020001004e000e0
:102b64000300320011c0b30090cf10004e003a00b1
:102b740070b020001040780001c2b300814f5000b3
:102b84001b00320005003e000004e0000a00320091
:102b9400e14f500044003a000f00370011c2b30067
:102ba400814f5000300032008140e800814f5000d6
:102bb4003d003a003400370040ae200060578800e2
:102bc4008000200080578800705780000000a0001b
:102bd400705788000200370040ae2000605788001c
:102be400705780000070a000705788000000060035
:102bf400c0b020009080fb000000e8001080fb00c3
:102c04004800dd000080700051af200011417800c1
:102c140080487800c800de0060af200010417800d2
:102c240001487800c0a5200021af200011417800a0
:102c340080487800c800de0030af200010417800e2
:102c44000148780064004000904078000048eb00a0
:102c54000000e800904078000048eb006400500059
:102c64001074a00000000600c0a520006057880072
:102c7400700020008057880011ccb300e0ae200023
:102c8400014878000000060080b020001080fb009e
:102c940091b020009180fb0028e8b70070578000b5
:102ca4000070a000705788000000060000b02400e7
:102cb40001002000e0528800f15288000040eb003f
:102cc40001a62000804878008100e8008048780050
:102cd40081c0b30020a62000014878001c68ef00e2
:102ce40051c1b30010c0b3001bfd0700d1c1b30034
:102cf40020c0b30018fd070003c4b30042aa20009b
:102d04008040eb0020c0b30029fd0700204188006b
:102d14002628ef001d68ef0000000600881f7800d9
:102d240001047800e50f500010003a0020418000b3
:102d3400880f500006003a0003c4b30042aa2000e2
:102d44008040eb0020c0b30019fd0700204188003b
:102d540010c0b30031418000888f500004003a0055
:102d64001d68ef002068ef00010037000040eb0011
:102d74004f04780000000600000178001c68ef0092
:102d8400204180000000e000020032001000e0005a
:102d94001100350090cf50000600360090407800b6
:102da400040037000080fb0043aa20006371780010
:102db4001c68ec001cc8bf00814f5000f9ff3900ab
:102dc40003c4b30042aa20008040eb0020c0b3003b
:102dd400f7fc0700204188001cc8bf000000060063
:102de4009ec0a9001d48e20006003a00f040880099
:102df400008220000148780010c0b30021e8b70029
:102e04001de8b7009ec0a800000006009ec0a900ef
:102e14001d48e2000d003a00000178008040eb00fc
:102e24008140e800e1cf4000020032003204e000bb
:102e3400fbff3a00f040880000822000014878003f
:102e440010c0b30021e8b7001de8b7009ec0a80079
:102e5400000006009ec0a9001d48e2000d003a00d3
:102e6400000178008040eb008140e800e1cf4000a1
:102e7400020032003204e000fbff3a00f040880018
:102e840000822000014878002168ef0010c0b300e0
:102e94001de8b7009ec0a800000006009ec0a9005f
:102ea400304180000000e000020032001000e00029
:102eb400410035001dc8bf00e34f500001003a0037
:102ec4001d68ef001dc8bf003b003200e24f5000f8
:102ed40008003a008041eb000001eb0011c0b30090
:102ee400b3fc07003041880030c0b3001de8b700d0
:102ef40031003700e14f50002f003a0020c8bf00d6
:102f04008041780001c4b300814f500001003600b5
:102f1400814178000340500020e8b70040a620001b
:102f2400104188002148e20002003200034078008a
:102f3400110037000340780006003700f24080009b
:102f440011418000924878002228ec001e28ec00f1
:102f54000040e9000004e000f8ff3a0008003700f0
:102f6400f240800011418000924878002228ec0051
:102f74001e28ec000040e9000004e000f8ff3a00dd
:102f84002048e20007003a0000c4b30080cf51009b
:102f940002003a0020c0b3000100370030c0b30083
:102fa4001de8b70042a6200011c0b30020c0b30042
:102fb4007ffc0700304188009ec0a8000000060086
:020000040000fa
:102fc400e10f500003003200e30f500004003a0008
:102fd4000200370035ff070001003700d4fe070068
:042fe40010000500d4
:020000040000fa
:102fe800f08f2f00ce00b6000080a0007006880089
:042ff80000000600cf
:020000040000fa
:1030000000000000000000000000000000000000c0
:1030100000000000000000000000000000000000b0
:1030200000000000000000000000000000000000a0
:103030000000000000000000000000000000000090
:020000040000fa
:1038000070842000ea0040000068eb00810f500047
:10381000fdff3a0010a1200001042000808040003c
:103820000068eb00810f5000fdff3a000000060029
:10383000881f78000004780050052000a10a2000ad
:10384000a101070080042000080040004700dd00bf
:10385000cf80de0022892000fa0107009f010700c7
:103860004f0478000000060050052000a10a200047
:10387000950107000040220001002000b701070069
:103880009601370001902000010040004200dd0059
:10389000cf80de00a50137009420ef009620ef00d6
:1038a0009820ef009a20ef009c20ef009e20ef0070
:1038b000a020ef00a220ef00000006000400fa00a4
:1038c000889fbe0030408000e30f5000be003600ed
:1038d0000824ab00bc003a0001c4b30020a12000c2
:1038e00026fd07000044780080842000801f7800b7
:1038f00040b72800801f780020a12000d8f40700de
:1039000030c8bf0012a12000e48757008000eb0000
:10391000040037005204e0000100320010c0b30080
:103920008100e8000882fb00848f5000f9ff350019
:1039300030e8b7000004e000a300320000c4b30088
:10394000804f54003f003a00d1418000814278000e
:1039500020a120000001eb00090037008381410015
:1039600026892000830143009083fb00c03bdd00db
:10397000104390000683fb00868973000080e800f6
:1039800082c142008381fb000201e8000103420082
:10399000868f5100f1ff3500080420000104440027
:1039a000d84188003068ef0095ff0700000c200028
:1039b000800f54001e003a0050052000a10a20008c
:1039c000410107000889200009182000888444006c
:1039d00058017800cf91de00002021000100200076
:1039e000b4418000c541800004004000858048004b
:1039f00000004000818048006b010700b04180005a
:103a0000c141800061004000e0804800b041880072
:103a1000c1418800890f5400edff3a003a28ef00b9
:103a200010002000770207002c0107000500370076
:103a300021c0b30070b72800eafc07003068ef002f
:103a40006fff0700c1b728008084200068f40700da
:103a50000000e00036003a000820210009002000a4
:103a600094418000a54180000404440085844c00fa
:103a70000804440089844c000800be002b010700a4
:103a80004809de000300200082ff9f0091ff9f0095
:103a900002f02f00000161008001eb00c81add0078
:103aa0004811de0002817200c819de00a2ff9f00eb
:103ab000b0ff9f0090418000a14180006100400064
:103ac000e080480090418800a14188001dc8bf00e7
:103ad00061bf2a00810f5400e08f5c0006003e00a9
:103ae0000004e00001003200edfc070041c0b3001b
:103af000688057000b0037000004e000010032002e
:103b0000e7fc070041c0b30050b82800b5fc07002f
:103b10001d48e20001003200e1fc070041c0b30093
:103b200050b82800affc07003068ef0034ff0700f2
:103b30002e48e20023003a00c1b82800808420000b
:103b40002bf407000000e00001003a0046ff0700e8
:103b500021b928008084200025f407000000e0003f
:103b60000b003a003228ef003428ef004aff07002c
:103b70002003200023020700f4f90700c02b2000d7
:103b80002002070000260400000000000d0037009e
:103b900071b928008084200015f407000000e000bf
:103ba00006003a003068ef0015ff070071c0b3004f
:103bb000f0b928008bfc0700020037003068ef00e6
:103bc0000fff0700b6fc07004f04be000080fa009c
:103bd000000006000801e20014003a0083e0a8009b
:103be0003602070002020700803e2000050207009f
:103bf00007f90700d9f90700803e200001020700fd
:103c00004efb0700803e2000fe01070010a12000af
:103c100001042000808040000068eb00810f50000c
:103c2000fdff3a0025ff0700feff37000801ab004b
:103c30000200320000260400000000001000050011
:103c4000c1b32000220a200040092000511878004a
:103c5000820f5000fdff3a004008f8000c04f90004
:103c60004208f8000204f90044c8bf006700600081
:103c70004800dd00f18f2f00720680008280600016
:103c80008100700071068800f0f12f004200b6003c
:103c90003e08b700f04188001002880000000600ce
:103ca0001e00fc00010e20001002800001006000d8
:103cb000f0418800010078004220b700c1b3200025
:103cc000220a200040092000902878000018eb000c
:103cd000820f5000fcff3a000c04f8004008f90085
:103ce0000c24ef000204f8004208f9000224ef005f
:103cf000700680004800de006700600020428800f7
:103d000000012000002088000000400050208800b2
:103d10008ec0a9000284a800f08f2f00ce00b6004c
:103d200000a0a000700688009ec0a8000000060049
:103d30003c68ef001000fc009ec0ab0002003200a7
:103d400010c0b3003ce8b7009ec0a9000000060008
:103d50003c48e200010032009ec0a80000000600be
:103d6000881f78000804ab000a0032000824ab006a
:103d700008003a009180200091407800e3cf500085
:103d800004003600282080004344de0061446400c3
:103d90001c0037000004e0000f0032000824a900d6
:103da0000804a800e2ff070050c0b300010420008f
:103db0000120880000c4ab00feff32000040e90093
:103dc000faff3a00282080004344de00614464008a
:103dd000dfff07000b00370000c4eb000804ab0056
:103de00008003200e8cfb3000824ab000500320021
:103df00009c8bf00c8cfb300e34f500001003e0028
:103e0000d8cfb300084078004f04780000000600c7
:103e1000a3ff07000348e2000100320004c8bf000e
:103e20000040fe000aa4ab0002003a0010c0b3003c
:103e3000cbff070082ff0700100005000040eb00e9
:103e40000348e2001e0032000448e2001c00320079
:103e50000824ab00010032000824a900b4ff0700c9
:103e6000000420000020880000c4ab00feff3200e8
:103e7000000420000020880000c4ab00feff3200d8
:103e8000000420000020880000c4ab00feff3200c8
:103e90001444a800000420000020880000c4ab00e7
:103ea000feff3200000420000020880000c4ab00a8
:103eb000feff32001444a900a5ff070010c0b300a4
:043ec00000000600f8
:020000040000fa
:103ec4000000fe0082b52000001978000109780086
:103ed400000006000000fe000000eb008000eb0084
:103ee400f8ff07006627ef00000006000000fe0050
:103ef400801f7800811f780081b520000600fc0037
:103f040031007800303b880011007800303b880095
:103f140061e7a8000000000000000000cf00780066
:103f24004f00780000000600a2028000a102880071
:103f34009080ba001000ba00a202880000000600b7
:103f4400a2028000a10288001000ba00a202880028
:103f5400000006000000fe0061e7af00feff37002e
:103f6400f23f2000000161000c003a00220424000a
:103f7400023b8800a2028000a10288000008bb0066
:103f84007a1f02000000000061e7af00feff370067
:103f9400a20288001000200061a7af0000002000ea
:103fa4000000060061e7af00feff37000000a70035
:103fb4000d003700a4028000a10288003100240013
:103fc400013b88000208bb000388bb007a1f020083
:103fd4000000000061e7af00feff3700a402880084
:103fe4001000200061a7af000000200000000600c0
:103ff40061e7af00feff37000000a7000e003700a6
:1040040033002400033b8800a3028000a10288003f
:104014000208bb00f20f20000288bb007a1f0200d6
:104024000000000061e7af00feff3700a302880034
:104034001000200061a7af0000002000000006006f
:1040440061e7af00feff3700f307200080816100c5
:1040540010003a0013002400033b8800a3028000f0
:10406400a1028800040420003208bb003298bb007f
:104074001400b100fcff3a007a1f020000000000a7
:1040840061e7af00feff3700a302880010002000a4
:1040940061a7af00000020000000060061e7af0048
:1040a400feff3700f30720008081610011003a0011
:1040b40013002400033b8800a3028000a1028800af
:1040c40004042000f10f20003208bb000198bb005b
:1040d4001400b100fcff3a007a1f02000000000047
:1040e40061e7af00feff3700a30288001000200044
:1040f40061a7af000000200000000600f23f20008e
:10410400000061000000060002c02f0000006100f2
:0c411400f2ff2f00810061000000060097
:020000040000fa
:10412000ffff3700ffff3700889fbe008a9fbe0059
:104130008c1f78000080210001102000f3ff070091
:104140000004be0050052000a10a20005eff070009
:104150000800be0081ff07000004e00001003a00f3
:10416000efff070032232200130120000800be00e9
:104170008dff07000046780062054400e0854c0092
:1041800062562500430420000a00be0086ff070097
:10419000000666000c04e00001003a00e0ff0700a2
:1041a0004eff07000800be0060ff07000004be00cd
:1041b0000a00be005dff0700322322001301200029
:1041c000820f5400838f5c0005003a006256250080
:1041d00043042000820f5000838f580001003200fa
:1041e000d0ff07004f0678004f05be004f04be0009
:1041f00000000600889fbe008a9fbe00008021004c
:1042000001102000c1ff07000005be00500520007e
:10421000a10a20002cff07000a00be004fff070084
:104220006044b8000004e00002003a00bcff070050
:104230006044b8000800450089804d000801be00b8
:1042400059ff07000004e00001003a00b4ff070036
:1042500062044400e0844c0000402000800f5400c1
:10426000e08f5c00f3ff3a001cff07006044b800d9
:104270000800450089804d002cff0700880f500082
:10428000898f580001003200a6ff07006204440035
:10429000e0844c0000402000800f5400e08f5c0060
:1042a000f3ff3a004f05be004f04be0000000600b9
:0842b0009dff0700cfff37005e
:020000040000fa
:1042b800580b00000400000082000000ffffff0010
:1042c800ff000000ec0a000032000000800000003f
:1042d800000800001c00000080000000000c000026
:1042e8003000000080000000520a00009a00000020
:1042f800800000001c080000120000008000000080
:104308003e0b00000e000000800000003c0800008a
:104318000a000000800000001e0b000020000000c2
:104328008000000046080000020000008200000033
:10433800ffff0000480800000a020000800000009b
:104348002e0800000e000000800000004c0b00004a
:104358000c00000082000000686a6c00747a4c004f
:0c436800006343006e5b000000000000da
:020000040000fa
:1043740000102300100888000621ef006821ef00d8
:104384006a21ef006e21ef007021ef007221ef002f
:104394007421ef007621ef007a21ef007c21ef00f9
:1043a4007e21ef0010002000a209200081072000d8
:1043b40013102000814978008249780080497800f0
:1043c4007205200061042000031020008149780058
:1043d40082497800804978000001ab00feff3a0072
:1043e40000a1ab00feff3200000006004c22ef00eb
:1043f4004ea2ef000003280080128800000006008f
:10440400889fbe00cf80de0012f10700020020006a
:10441400a3472400cbf00700024022004377240086
:104424004ff107000004be00601280008000eb0022
:104434000bf107000801be0004f107000000e000d2
:10444400f9ff35004c22ef004f04be0000000600c7
:104454008421ef008e21ef0070012000000c880001
:10446400f0ff2e00500c88005620ef005820ef007b
:104474005a20ef006e20ef007020ef007220ef0052
:104484008621ef009021ef0040002000400c8800be
:0c449400f0242e00900c880000000600b0
:020000040000fa
:1044a000e0b120008007780078004000000188001b
:0c44b0000000060030428800ffff3700cb
:020000040000fa
:0c44bc00e5ff0700c9fa0700abff37005e
:020000040000fa
:020000040001f9
:0457f000ffc30000f3
:020000040000fa
:020000040001f9
:0457f400fff60000bc
:020000040000fa
:020000040001f9
:0457f8005f38000016
:020000040000fa
:020000040001f9
:0457fc003f3d00002d
:00000001FF
