:020000040000fa
:080000000002040000000000f2
:020000040000fa
:1000080002220000062200000a2200000e22000040
:1000180012220000162200001a2200001e220000f0
:1000280022220000262200002a2200002e220000a0
:1000380032220000362200003a2200003e22000050
:1000480042220000462200004a2200004e22000000
:1000580052220000562200005a2200005e220000b0
:1000680062220000662200006a2200006e22000060
:1000780072220000762200007a2200007e22000010
:1000880082220000862200008a2200008e220000c0
:1000980092220000962200009a2200009e22000070
:1000a800a2220000a6220000aa220000ae22000020
:1000b800b2220000b6220000ba220000be220000d0
:1000c800c2220000c6220000ca220000ce22000080
:1000d800d2220000d6220000da220000de22000030
:1000e800e2220000e6220000ea220000ee220000e0
:1000f800f2220000f6220000fa220000fe22000090
:1001080002230000062300000a2300000e2300003b
:1001180012230000162300001a2300001e230000eb
:1001280022230000262300002a2300002e2300009b
:1001380032230000362300003a2300003e2300004b
:1001480042230000462300004a2300004e230000fb
:1001580052230000562300005a2300005e230000ab
:1001680062230000662300006a2300006e2300005b
:1001780072230000762300007a2300007e2300000b
:1001880082230000862300008a2300008e230000bb
:1001980092230000962300009a2300009e2300006b
:1001a800a2230000a6230000aa230000ae2300001b
:1001b800b2230000b6230000ba230000be230000cb
:1001c800c2230000c6230000ca230000ce2300007b
:1001d800d2230000d6230000da230000de2300002b
:1001e800e2230000e6230000ea230000ee230000db
:0801f800f2230000f6230000d1
:020000040000fa
:1002080000000000300300007203000050030000eb
:100218009203000000000000000000000000000041
:1002280000000000000000000000000000000000c6
:1002380000000000000000000000000000000000b6
:1002480000000000000000000000000000000000a6
:100258000000000000000000000000000000000096
:100268000000000000000000000000000000000086
:100278000000000000000000000000000000000076
:100288000000000000000000000000000000000066
:100298000000000000000000000000000000000056
:1002a8000000000000000000000000000000000046
:1002b8000000000000000000000000000000000036
:1002c8000000000000000000000000000000000026
:1002d8000000000000000000000000000000000016
:1002e8000000000000000000000000000000000006
:1002f80000000000000000000000000000000000f6
:1003080000000000000000000000000000000000e5
:1003180000000000000000000000000000000000d5
:1003280000000000000000000000000000000000c5
:1003380000000000000000000000000000000000b5
:1003480000000000000000000000000000000000a5
:100358000000000000000000000000000000000095
:100368000000000000000000000000000000000085
:10037800000000000000000004030000000000006e
:100388000000000000000000000000000000000065
:100398000000000000000000000000000000000055
:1003a8000000000000000000000000000000000045
:1003b8000000000000000000000000000000000035
:1003c8000000000000000000000000000000000025
:1003d8000000000000000000000000000000000015
:1003e8000000000000000000000000000000000005
:0803f8000000000000000000fd
:020000040000fa
:100400000fa320000e7f22000e01880000000000d4
:10041000000020000000e000020032000001200087
:100420002002880014000700ce0007000000e00052
:1004300003003a0000df2100010020000200370025
:100440000000200001002000810f70000100320038
:1004500014000700000020000000e000020032004d
:100460000000020000000000201c0200000000004c
:100470000040da000000fe004440a900600c2000ab
:100480000000e000030032000020200090018800fe
:100490004440a800000006008a1f78008b1f7800e7
:1004a00000000600a1028800800478000000eb0034
:1004b0001f003700e284440054a0b4009905ba003c
:1004c000e284440054a0b4009906ba00e2844400d7
:1004d00054a0b4000006eb00476fde00fd07b20039
:1004e000ae018800636ce10003003a00eaff0700f8
:1004f0000000eb000e003700606ce10008003a00dd
:10050000004deb000a05e800020039003420ec0041
:100510000af0a0008b05e900f9ff3e000400370057
:100520006168e100010032000086eb000b0007006b
:1005300019c7ba001905ba000e04e00003003a001a
:100540000a00e000dbff3a0000000600fe07b200f0
:10055000ae0288008a047800f5ff37000cd0a300b3
:10056000e20f4d001c00390089027800354dba00b9
:100570000a05e800020039003420ec000af0a0006f
:100580008b05e9000f003200254dba000a05e8008e
:10059000020039003420ec000af0a0008b05e900cd
:1005a000080032000c00e0000600320015cdba0051
:1005b0000a05e800020039003420ec000af0a0002f
:1005c0008b05e9008984e80054a0b4000b00e0002a
:1005d000e2ff3a00000006009902ba00055d7800cb
:1005e0008b05e900f7ff3200c82ade00055d7800c0
:1005f0008b05e900f3ff32000c00e000f1ff320050
:1006000019ddba00eeff37003600f800809fbe000b
:10061000829fbe00849fbe00869fbe003200f8000d
:100620003400f80010002000a00188000020200005
:10063000900188000000fa005e0207000080fa00c6
:100640003400f9003200f9004f03be004f02be0033
:100650004f01be004f00be003600f900004006000a
:100660003600f800809fbe00829fbe00849fbe00bf
:10067000869fbe000000fa008020a9000000eb0069
:100680008f0d07000080fa004f03be004f02be002e
:100690004f01be004f00be003600f90000400600ca
:1006a0003600f800809fbe00829fbe00849fbe007f
:1006b000869fbe000000fa00860d07008040a9005a
:1006c000100020007e0d07000080fa004f03be00de
:1006d0004f02be004f01be004f00be003600f900c1
:1006e000004006003600f800809fbe00829fbe00da
:1006f000849fbe00869fbe000000fa008060a900b3
:10070000200020006e0d07000080fa004f03be009d
:100710004f02be004f01be004f00be003600f90080
:10072000004006003600f800809fbe00829fbe0099
:10073000849fbe00869fbe000000fa008080a90052
:10074000300020005e0d07000080fa004f03be005d
:100750004f02be004f01be004f00be003600f90040
:100760000040060000000500889fbe008a9fbe0072
:100770008c1f78006b0007007200330003866c004a
:100780006450e1002e0032006420e10033003200aa
:100790006150e1002f0032006120e10031003200a1
:1007a00085855500eb07b0000900200008042000f3
:1007b000050037000804440089844c000a00310019
:1007c0000603430087834b000001530081815b00d7
:1007d000f8ff33000203be000800a0000804440034
:1007e00089844c00f6ff3900c639dd0083017300af
:1007f00001003200130020008904d1000884d300d6
:100800000998a300050032000800a7000300a0001b
:100810008904d1000884d3008b05e8008904d10045
:100820000884d3000001eb000281d200170007000a
:1008300001f0a1000cf0a70001f0a0004a00370071
:100840006420e1004c0032000801be000200be003e
:10085000f7ff37006120e100470032006000b80078
:10086000f3ff37000000200001f82700f0ff3700f9
:1008700014002000770037004f89de0082017800e5
:100880008f0037006011b8009d0037008100200004
:10089000618055000b003d000b00200061fe2f0021
:1008a0000100e1001d0034008281710061016400db
:1008b0008904d1000884d3000000e800faff3a0060
:1008c00071002000610064000300700002006000fd
:1008d0000900320061044400e0844c000988a5004e
:1008e000050032008b05e8006808e10002003a00cc
:1008f0008904d1000884d300f20f20000258e100df
:1009000005003d00c75ddd00f907b2008980750074
:1009100008007800000006000bf827008b00780024
:10092000000005000004be00a40007000003be0094
:100930000405be000200be00a0000700844f750041
:10094000000006000200be006450e1000500360011
:100950006420e100020036000968a30001003a00ab
:100960000800be000160a0004f0678004f05be00e1
:100970004f04be0000000600f0ff2f00f1ff27002b
:10098000f9ff3700889fbe008a9fbe008c1f780049
:10099000e4ff0700ebff330003866c006450e100c6
:1009a000240032006420e100270032006150e100a1
:1009b000220032006120e100210032008b854200dc
:1009c000eb07b1000134b800003ab8000804420057
:1009d00089844a00013ab8000030b800888040009d
:1009e00009014a00040033000000400081804800f3
:1009f000020149008b05e900c909dd00830170008f
:100a00000100320013002000c814de004814dd008d
:100a10004709de001200b200c808de00088470003a
:100a20009aff070001f0a1000cf0a70001f0a00060
:100a3000cdff37006120e100cfff32000801be008a
:100a40000200be00f7ff37006150e100fcff3a00f2
:100a5000c9ff3700889fbe008a9fbe00841f7800b0
:100a6000b0ff07004f00780011003300f0ff2f00a7
:100a7000838f6c0006003b00040565000a00a70098
:100a80000800370009f0a600100020000800370019
:100a9000820f5400838f5c00030039001000200097
:100aa00001003e000000200009f0a7000000ea005d
:100ab0004f05be004f04be000000e000000006002d
:100ac000881f7800030478000300e00007003d0061
:100ad00060001000e080180060011900e08119003a
:100ae00002003b0001f02d00030037000400070066
:100af00008f0a70001f0a0004f04780000000600f5
:100b0000889fbe008a9fbe000082700004027100b0
:100b100004827100260032000004be000200be0004
:100b20006011b8006b092000950220000182cf00ff
:100b30000a0039000541b1000082cf0007003900ea
:100b40000541b1000982cf00040039000541b10020
:100b50000882cf00010039000541b1000542520072
:100b6000120032000a003b008281710061016400c2
:100b70008100d1000080d3008984d3000884d30091
:100b80008b05e8000442e800f7ff3a000700370051
:100b90000804440089844c0000004800818048001b
:100ba0008b05e9000442e900f9ff3a0037ff07002e
:100bb0004f05be004f04be0000000600c70ade005d
:100bc000f107b200f50fb20008003200e1cf420099
:100bd000020032000170a00024000500810f7000a7
:100be000010032000408050044000500810f700078
:100bf00002003a00140005008502e90000004000f0
:100c000081c04800fcff3b000170a00024000500eb
:100c10008001780002003700b15978000201e90034
:100c20000200e000fcff3a000000060080017800ae
:100c300002003700815978000201e9000200e0005b
:080c4000fcff3a000000060071
:020000040000fa
:100c4800120100000002000002000000000800007d
:100c5800d80400000a0000000001000001020000a2
:100c6800000100000902000043000000020100002a
:100c780000c000003209000004000000000100006c
:100c8800020200000100000005240000001000001e
:100c980001040000240200000205000024060000f0
:100ca8000001000005240000010000000107000009
:100cb80005810000030a000000020000090400008a
:100cc80001000000020a0000000000000007000008
:100cd80005020000024000000000000007050000b7
:100ce8008202000040000000000000000403000031
:100cf80009040000340300004d00000069000000f2
:100d080063000000720000006f0000006300000034
:100d1800680000006900000070000000200000006a
:100d28005400000065000000630000006800000037
:100d38006e0000006f0000006c0000006f000000f3
:100d48006700000079000000200000004900000052
:100d58006e000000630000002e0000001a0300006f
:100d680050000000720000006f00000064000000e6
:100d780075000000630000007400000020000000ff
:100d88004e000000610000006d00000065000000da
:100d9800368600007a8600007e860000b286000053
:100da8005265000063650000697600006564000014
:100db80020660000756c00006c2000007374000051
:0c0dc8006f7000002e0d00000a000000fb
:020000040000fa
:100dd4000200fa009ec0a9000080eb007020880089
:100de4000080eb00502088002a24ef0042002000fd
:100df4008000eb00c04220008bff07002000200091
:100e0400302188002824ef000644a900f0092000be
:100e140080208800f00920006020880002c4a80017
:100e24000804a80000a020004800de00c0208800bc
:100e34000040eb00004f7800070037001e80fb00e5
:100e4400c200dd0000a02000008140006000b80066
:100e54000089be001e4fe8001e407800eb4f500092
:100e6400f6ff36001424a8001624ef0014a4a900e9
:100e74001424a9008000200050208800809a2000bb
:100e84008040eb0001487800e09a20008040eb00ad
:100e940001487800f09a200090407800e0c060009b
:100ea40001487800009b200090407800e0c060007a
:100eb4000148780050208000680060000000e000d5
:100ec400ecff3a0010c0b30013e8b70010c0b30041
:100ed40014e8b7001568ef001668ef000d68ef001e
:100ee4000040eb00004f7800150037001e80fb0027
:100ef40080004000009a2000008040008000eb0049
:100f0400010878001e80fb0080004000a0992000aa
:100f1400008040008000eb00010878001e80fb0088
:100f2400319b20000041eb00827078001e80fb00a2
:100f3400619b20000041eb00827078001e4fe800a6
:100f44001e407800e24f5000e8ff360080a02000e9
:100f5400004d8800d000200050218800909b200084
:100f64001050880000a0200081c0b3000148780020
:100f740010a0200041c0b3000148780010a0200058
:100f840010407800804078000174a00010a0200078
:100f9400014878000268ef001828ef001a28ef00d3
:100fa4001c68ef000028ef000080fa000000060033
:100fb4000200fa0000408000e10f50000b003a00ec
:100fc400a120800000042000008060000000e000f8
:100fd40006003a000080eb00502088000c04a800b2
:100fe4000c84a8002000200000408800002080001d
:100ff400700060000000e000070032001020800054
:10100400700060000000e0000300320000012000d6
:1010140000208800bc0407004020800062006000bb
:101024000000e000020032008ec0a900a1003700d9
:1010340050208000610060000000e0000a003200df
:1010440060208000610060000000e00006003200c3
:101054005fff07009ec0a8004000200000408800f9
:101064001000200050208800502080007000600094
:101074000000e00005003200602080007000600085
:101084000000e0000100320092040700012080000b
:1010940000042000008060000000e0000300320033
:1010a4000004200000208800ee0607005020800085
:1010b400640060000000e000140032006020800042
:1010c400640060000000e000040032001200200010
:1010d4008000eb0030072000430a07004000200096
:1010e4005020880011c8bf000004e0000300320053
:1010f40011c8bf000040e90011e8b70011c8bf00e3
:101104000004e00001003a00a30107005120800020
:1011140000082000008060000000e00006003200ab
:101124006120800000082000008060000000e000d2
:10113400010032004b040700502080006200600070
:101144000000e0000c0032006020800062006000bb
:101154000000e00008003200120020008000eb00d4
:10116400f0ff2700200a07000080eb0070208800b1
:10117400200020005020880000408000e30f500031
:1011840002003e008ec0a9004a00370060208000a3
:10119400680060000000e000450032000040eb0001
:1011a400004f78003d003700502080006800600048
:1011b4000000e0003d0032009020800000407800f4
:1011c4000ee8b7000ec8bf000080fb004400de003c
:1011d400004078000fe8b70080002000502088000d
:1011e4000ec8bf00684060000004e00011003a002f
:1011f4000fc8bf000081fb008080fb00609b2000c3
:10120400008040009040780061c060000004a200ab
:10121400e1406000609b200000004100e1c06000ec
:10122400104178000204a100814071000148780057
:10123400100037000fc8bf000081fb008080fb0056
:10124400309b2000008040009040780061c0600026
:101254000004a200e1406000309b20000000410037
:10126400e1c06000104178000204a10081407100d7
:10127400014878000fc8bf000004e00002003a00f3
:101284002d040700040037000001eb00e18020007a
:1012940020072000d40907001e4fe8001e407800f4
:1012a400e34f5000c0ff360001003700000000008b
:1012b4008ec0a9000080fa00000006000400fa00b5
:1012c40020479800314798003e4090000080fb0082
:1012d400680060000000e000030032008040eb0082
:1012e4002e4090009b0107003e4090000080fb00d0
:1012f400640060000000e0000300320011c0b3008d
:101304002e40900093010700a14220002e4090003f
:101314000080fb0000004000008f40001e007800a9
:10132400be409000014878000080fa0000000600ea
:101334000800fa00204798003147980022079800d7
:10134400634798003e4090000004e000070032002c
:101354002e4090000080fb0080004000009a200096
:1013640000804000100f7800060037002e409000e7
:101374000080fb0080004000a09920000080400015
:10138400100f78001e0078000000e00002003a0010
:101394000000eb0037003700ae0090001e0078001c
:1013a400110098001e007800ee409000014878007b
:1013b4001e0078001040900002c4b3008240600018
:1013c4001e007800114098001e0078001040900024
:1013d400804078000134a0001e007800114098007d
:1013e4001e00780010409000804078000174a00036
:1013f4001e007800114098003e4090000004e00078
:101404000e0032002e4090000080fb00ae409000a1
:101414008180fb0001814000019a2000810041008d
:10142400910078000120a20000014000009a2000f1
:1014340000004100010878000d0037002e409000a4
:101444000080fb00ae4090008180fb0001814000e1
:10145400a199200081004100910078000120a200a0
:1014640000014000a099200000004100010878001c
:101474001e0078000080fa00000006000400fa0054
:1014840020479800314798002e4090000004e00067
:1014940017003a003040800081c0b3000148780052
:1014a40030408000919b2000110098003040800063
:1014b400c1c0b3001140980030408000314080002a
:1014c400914090000174a00011409800004d8000ec
:1014d40041c0b30011409800004d8000014d8000d0
:1014e400914090000174a000114098002e00370034
:1014f4002e4090000080fb00000040008000780037
:101504003e4090000080fb00008040004300dd006e
:101514008000780000a02000008f40001e007800aa
:1015240010409000804078000124a0001e00780044
:10153400114098001e007800104090008040780010
:101544000174a0001e007800114098002e40900005
:101554000080fb0000004000800078003e409000c6
:101564000080fb00008040004300dd00e4004000f8
:1015740000a02000008f40001e0078001040900062
:10158400804078000124a0001e00780011409800db
:101594001e00780010409000804078000174a00084
:1015a4001e007800114098000080fa000000060038
:1015b4000200fa00004f7800a12080000002200001
:1015c400008060000000e000510032001e80fb003b
:1015d40080004000009a2000008040001002780043
:1015e4001e80fb0080004000009a20000080400024
:1015f400100078001001be0000042000010020004b
:1016040082027800030178008001780001007800ec
:1016140083826200000061008000eb00c000dd00f6
:10162400000020000001be006128b8000001710024
:1016340081817100028abe001e80fb008000400090
:10164400009a200000804000100278001e80fb00f9
:1016540080004000009a20000080400010007800c4
:101664001001be00000420000100200000006900f9
:1016740081806900008abe001e80fb009e80fb0002
:1016840001814000019a200081004100910078000e
:101694000120a20000014000009a20000000410047
:1016a400010878001e80fb0080004000009a2000a2
:1016b40000804000900078001e80fb000001400084
:1016c400009a2000000041001000780010409000b3
:1016d4000044b200904098001e80fb00800040004f
:1016e400009a200000804000900078001e80fb00db
:1016f40000014000009a2000000041001000780022
:101704001041900000c4b30000406900904098006c
:101714000080fa00000006000000fa001424ef0024
:101724000c24ef000028ef000080fa0000000600ff
:101734000000fa00004080000000e00014003a00bd
:101744001424ef000c24ef00200020003021880036
:101754002824ef000644a900f00920008020880016
:10176400f00920006020880002c4a8009ec0a800e0
:10177400010037001404a800a0208000610060006c
:101784000000e000fbff3200100020000040880051
:101794000080fa00000006000000fa0013c8bf0031
:1017a4000004a2000004e0003400320010c0b300c2
:1017b40013e8b70014c8bf000004a2000004e0004e
:1017c4002e00320010c0b30014e8b70009c8bf00ef
:1017d400e24f50000c003a00004d80008040eb00c6
:1017e40001487800004d800081c4b3001140980086
:1017f400004d8000014d8000914090000174a000d4
:10180400114098001d00370009c8bf00e14f500087
:101814001a003a001068ef002040800081c0b30035
:101824000148780020408000919b2000110098001e
:101834002040800041c0b300114098002040800047
:1018440021408000914090000174a0001140980054
:1018540010c0b30010e8b7003040800081c0b3006e
:101864000148780030408000919b200011009800ce
:101874003040800001c8b300114098000080fa0095
:10188400000006000000fa001568ef001668ef007b
:1018940009c8bf00e24f50000f003a0030408000fa
:1018a40081c0b3000148780030408000119c2000c2
:1018b400110098003040800081c4b30011409800aa
:1018c4003040800031408000914090000174a000bd
:1018d400114098001d003700f09b20001080fb0091
:1018e400019c20009180fb00c808dd00010070000d
:1018f40080007800504d8000808f50000700310038
:10190400f09b20001080fb00019c20009180fb00d4
:10191400c808dd0001007000504d880096000700e3
:10192400004d8000119c200011009800004d8000a3
:1019340081c4b30011409800004d8000014d800027
:10194400914090000174a000114098000080fa00ba
:10195400000006000400fa00204798003147980070
:1019640000a02000000f78002e4090000080fb00b3
:1019740000004000800078003e4090000080fb00a2
:10198400008040004300dd001e0f40001e00780070
:101994009000780001f0a100010878003e4090001a
:1019a4000004e00007003a002e4090000080fb0095
:1019b40080004000a0992000008040001e087800ac
:1019c400060037002e4090000080fb00800040009d
:1019d400009a2000008040001e0878001e00780055
:1019e4009000780001e0a100010878009e007800d2
:1019f400648040009000780001e0a00001087800b5
:101a04000080fa00000006000000fa0014a4a900f7
:101a1400414d800000082000008060000000e000cc
:101a240027003a00e09a20009040780000c8b300f4
:101a340000c060000004e0000a00320020c0b300cf
:101a440009e8b70016c8bf000004a2000004e000c3
:101a5400010032008bff07001468ef001368ef00e9
:101a6400430037003040800081c0b3000148780053
:101a740030408000919b200011009800304080008d
:101a8400c1c0b30011409800304080003140800054
:101a9400914090000174a00011409800004d800016
:101aa40041c0b30011409800004d8000014d8000fa
:101ab400914090000174a000114098002c00370060
:101ac400909b20009040780000c8b30000c06000e4
:101ad4000004e0000f00320010c0b30009e8b700b2
:101ae40015c8bf000004a2000004e0000100320099
:101af40064ff07001468ef001368ef0012c8bf000a
:101b04000004a2000004e0001900320022ff0700d4
:101b14001700370020c0b30009e8b7003040800048
:101b240081c0b3000148780030408000919b2000c0
:101b3400110098003040800041c0b300114098006b
:101b44003040800031408000914090000174a0003a
:101b5400114098001468ef001368ef0012c8bf002a
:101b64000004a2000004e000010032000aff0700a4
:101b74000080fa00000006000200fa0080c0b300f2
:101b8400004f7800504d8000e70f50000d003e00dc
:101b9400504d8000004f780008c8bf000004e000ea
:101ba40003003a0010c0b30008e8b700050037008e
:101bb40008c8bf00e14f500002003a0020c0b30043
:101bc40008e8b700514d80001e80fb0000805000e3
:101bd400504d8800004d80001e487800109c200065
:101be40050408800404d8000610060000000e0002b
:101bf40017003a000900370051408000304d800042
:101c040010417800824878008100e8005140880043
:101c14000000e800304d88001e4fe9001e407800a7
:101c24000004e000f4ff3a000c003700514080004b
:101c3400304d800010417800824878008100e8002f
:101c4400514088000000e800304d88001e4fe90034
:101c54001e4078000004e000f4ff3a000080fa001f
:101c6400000006000200fa0020408000104f7800b7
:101c74009e80fb00f09a20001080fb00029b200055
:101c84001281fb004811dd0002007000808f5000bb
:101c940007003600f09a20001080fb00019b200012
:101ca4009180fb00c808dd0001007000004f78003f
:101cb400f09a20001080fb00019b20009180fb0023
:101cc400c808dd0001007000800078001e80fb0061
:101cd40000805000f10f200001016000f19a200003
:101ce40091417800e0c1610002c17100824878002e
:101cf400c800de00009b20001041780060416100b4
:101d040081407100014878000040eb0010479800c2
:101d14001c003700c09a20001080fb00d19a2000dc
:101d24009180fb00c808dd00010070009e40900017
:101d34008180fb00129c2000e2c0780001487800fa
:101d44000000e800f10f200001016000c19a2000aa
:101d540091417800e0c1610002c1710082487800bd
:101d6400c800de00d09a2000104178006041610074
:101d740081407100014878001e4090000040e80056
:101d8400104798001e4090009e4f5000e1ff39001c
:101d9400f09a20001080fb00019b20009180fb0042
:101da400c808dd00010070000000e0001e003200e1
:101db4003040800081c0b30001487800304080008a
:101dc400119c2000110098002040800090007800b1
:101dd40000002400008060000000e00009003a00d8
:101de4003040800081c4b30011409800304080002e
:101df40031408000914090000174a000114098008f
:101e04002f0037003040800081c0b300114098009b
:101e14003040800031408000914090000174a00067
:101e240011409800260037003040800081c0b30084
:101e34000148780030408000919b200011009800f8
:101e44003040800041c0b300114098003040800011
:101e540031408000914090000174a000114098002e
:101e6400109b20001080fb00219b20009180fb0030
:101e7400c808dd00010070000000e0000700320027
:101e8400109b20001080fb00219b20009180fb0010
:101e9400c808dd000100700000000100e09a200085
:101ea400904078000174a1000148780012c8bf0076
:101eb4000004a2000004e0000100320036fe070026
:101ec4000080fa00000006000200fa00404d800085
:101ed4000070a000404d8800420020008000eb000c
:101ee400c042200050fb0700020320008000eb00ea
:101ef40000a020004cfb07001424a8000040eb00c5
:101f0400004f7800090037001e80fb00319b200041
:101f14000041eb00827078001e80fb00619b200072
:101f24000041eb00827078001e4fe8001e407800ec
:101f3400e24f5000f4ff3600220020008000eb0046
:101f44008099200038fb07001424a90080a02000f9
:101f5400004d880000a02000204088002040800020
:101f640030408800b09b20001040780002e8b700a1
:101f740002c8bf000004e00003003a000001200092
:101f84000040880006003700120020002180200055
:101f94001000200094060700000220000040880082
:101fa4000080fa00000006000000fa00909b200068
:101fb4009040780000c8b30080cf500047003a003a
:101fc400809a200001ccb30001487800c09b200017
:101fd400104078000080fb00e20f5000090032003e
:101fe400e30f500023003200e10f500037003a00a5
:101ff40040622800304d880020012000504d8800a8
:1020040036003700b09b2000104078000004e00048
:1020140014003a00b09b2000104078000080fb00c0
:102024000000400080007800c06c28000080400060
:1020340010007800304d8800304d80000080e800aa
:1020440090407800a09a200001487800304d80002c
:102054006300400090407800b09a20000148780066
:102064001e003700809a20008040eb000148780071
:102074001a003700b09b200010407800e24f500057
:102084000e003e00b09b2000104078000080fb0052
:102094000000400080007800e06c280000804000d0
:1020a40010007800304d8800304d800010407800da
:1020b4000080fb00504d880008003700809a200003
:1020c4008040eb000148780004003700809a20002b
:1020d4008040eb0001487800000000000080fa0016
:1020e400000006000200fa00109c20008040eb0073
:1020f40001487800209c20008040eb0001487800d3
:10210400909b2000904078007fc060000080fb001e
:10211400e10f500011003200e20f500013003200b2
:102124000000e00040003a00404d80000070a00034
:10213400404d88000cc8bf000004e00035003200a8
:10214400109c200010407800804078000114a0000a
:10215400109c20000148780033003700404d800077
:102164000070a000404d88002f003700404d8000d3
:102174000070a000404d8800d09b20009040780063
:1021840000c8b30000c060000004e00009003a0089
:10219400d09b2000904078006fc060000080fb005e
:1021a40080004000a099200000804000100f7800bb
:1021b40008003700d09b2000904078006fc060007a
:1021c4000080fb0080004000009a20000080400056
:1021d400100f78001e00780090007800000028009e
:1021e400008060000000e0000c0032001e00780057
:1021f4009000780000402000008060000000e000b3
:1022040008003200109c200011c0b300014878007f
:102214000500370000000000030037000000000044
:102224000100370000000000414d8000000820003c
:10223400008060000000e00008003200109c2000d4
:10224400304d8800404d80000000a000404d8800c3
:10225400a09a200021c0b300014878000080fa0051
:10226400000006000000fa005021800062006000b7
:102274000000e000130032002040800090409000f5
:1022840000c8b30080cf50000d003a00004d80001c
:102294009040900040c8b30080cf500008003a003e
:1022a40020408000c1c0b30011409800204080004d
:1022b40021408000914090000174a00011409800da
:1022c4002a24a90000082000502088000080fa0079
:1022d400000006000000fa000284a80000012000ab
:1022e4005020880010c0b3000de8b7001c68ef0050
:1022f4000001eb008000eb0050072000ba05070046
:102304000080fa00000006000000fa000d68ef00eb
:102314000001eb008000eb0040072000b20507003d
:102324000284a90000012000002088001c68ef003e
:102334000080fa00000006000000fa00d0c2b300da
:1023440011e8b7000ec8bf000080fb000020a10008
:102354000000e0001f003a000ec8bf000080fb0030
:102364004200de00004078000080fb00c200dd0077
:1023740000a0200000804000204088002040800011
:1023840030408800304080000020a20030408800a7
:10239400204080009000780000c02300808060000e
:1023a40000402300808f500008003a002040800045
:1023b400100090008200200080007800909b200094
:1023c40012fa07000b000700080037003d00070061
:1023d400060037000ec8bf000080fb000020a100eb
:1023e400e80f500001003a00530007000080fa0093
:1023f400000006000000fa000868ef001268ef0011
:102404001568ef001668ef001068ef000968ef0028
:10241400004d8000014d8000914090000174a100a6
:1024240011409800004d80000020a200004d88005b
:10243400004d8000014d8000914090000174a10086
:1024440011409800004d80000020a200004d88003b
:102454003040800031408000914090000174a10020
:1024640011409800809a20008040eb0001487800d9
:102474000000eb00504d8800e09a20008040eb0003
:1024840001487800f09a200090407800e0c0600095
:1024940001487800009b200090407800e0c0600074
:1024a40001487800820007000001eb008000eb0087
:1024b400300020004c05070053fd07000080fa009f
:1024c400000006000000fa0009c8bf00e24f5000f7
:1024d40002003a00e3fd0700150037000968ef0029
:1024e40010c8bf000004a2000004e0000f00320086
:1024f4003040800081c0b300014878003040800043
:10250400919b20001100980030408000c1c0b300ae
:10251400114098003040800031408000914090008c
:102524000174a00011409800010037001068ef000a
:102534000080fa00000006000200fa00004d80004e
:10254400100078004e00de0061406000004f78000b
:10255400004d80000020a200004d88000040800053
:10256400e80f50000e003a00b09b200010407800a5
:102574008080fb00f007200000806000b02088000d
:10258400b02080000000e0000300320000012000c1
:10259400004088000200370040002000004088000e
:1025a40009c8bf00e14f500025003a00004d8000eb
:1025b400119c2000110098006ffd070008c8bf009f
:1025c400e24f500009003a00004d800041c0b300c2
:1025d40011409800004d8000014d80009140900012
:1025e4000174a000114098002f0037001e407800ad
:1025f4000004e00009003a00004d800081c4b300eb
:1026040011409800004d8000014d800091409000e1
:102614000174a0001140980023003700004d800091
:1026240081c0b30011409800004d8000014d80002e
:10263400914090000174a000114098001a003700e6
:10264400e09a20009040780000c8b30000c0600009
:102654000004e00013003200109b20001080fb00f7
:10266400219b20009180fb00c808dd000100700060
:102674000000e00007003200109b20001080fb00e7
:10268400219b20009180fb00c808dd000100700040
:1026940000000100e09a2000904078000174a1003d
:1026a400014878000968ef000080fa000000060085
:1026b4000000fa00909b2000104078000046b20011
:1026c4000004e00050003a00a09b20001040780075
:1026d4000080fb00cf80de00b20020000300200059
:1026e400820f5000838f580049003e0000600100b3
:1026f4002100370022003700470037002000370050
:1027040045003700060037000b003700390037005a
:102714000d0037000a0037001b0037002a0037007d
:10272400404d80000070a000404d880080002000d3
:1027340000408800390037001bfe070037003700cf
:10274400e1fd07003500370020802000304d88006f
:10275400404d80000000a000404d8800a09a200059
:1027640011c0b30001487800404d80000070a00003
:10277400404d8800290037005afe07002700370023
:102784002800070025003700d09b20001040780067
:102794008080fb008099200000804000304d88003c
:1027a400404d80000000a000404d8800a09a200009
:1027b40011c0b30001487800404d80000070a000b3
:1027c400404d880015003700404d80000070a00087
:1027d400404d8800d09b2000104078000080fb0012
:1027e400b19b20001141780081992000827078000b
:1027f4000a0037000001eb008000eb0020002000fd
:1028040079040700050037000000000003003700ca
:102814000000000001003700000000000080fa0002
:10282400000006000600fa00b09b2000104078006b
:10283400e14f500010003a00909b200010407800b7
:102844007f4060000004e0000b003a00404d80002f
:102854000070a000404d8800a09b2000104078002c
:10286400e34f500003003a0010c0b3000ce8b70077
:10287400010037000c68ef00b09b20001040780086
:102884000004e000f5003a00909b2000104078001e
:102894007f406000e24f5000f0003a00d09b2000df
:1028a400104078006f4060000004e000eb0032004c
:1028b400d09b2000904078006fc060000080fb0037
:1028c400e20f5000e5003c000140800000022000bf
:1028d400808f5000e1003a00404d80000070a0005d
:1028e400404d8800d09b20009040780000c8b30081
:1028f40000c060000004e00010003a00d09b2000fb
:10290400104178006f4061000080fb0080004000af
:10291400a099200000804000100f7800d09b200078
:10292400904078006fc060000080fb00619b200035
:1029340061407800404798000f003700d09b20008a
:10294400104178006f4061000080fb00800040006f
:10295400009a200000804000100f7800d09b2000d7
:10296400904078006fc060000080fb00319b200025
:1029740061407800404798004e40900061406000fc
:102984000004e00004003a001e0078000020a100ca
:10299400000f7800030037001e0078000020a0001c
:1029a400000f7800d09b20009040780000c8b3004e
:1029b40000c060000004e0000a003a00d09b200040
:1029c400104178006f4061000080fb009e00780099
:1029d40000014000a0992000000041000108780097
:1029e40009003700d09b2000904078006fc0600041
:1029f4000080fb009e00780000014000009a200047
:102a04000000410001087800a09b200010407800dd
:102a1400e34f50002c003a001e007800900078002c
:102a240000002800008060000000e000190032006f
:102a3400d09b20009040780000c8b30000c0600024
:102a44000004e0000a003a00d09b20001041780006
:102a54006f4061008080fb00609b2000008040008c
:102a6400904078000114a000014878000900370064
:102a7400d09b2000904078006fc060008080fb00f5
:102a8400309b200000804000904078000114a0009a
:102a9400014878001e0078001040900080407800c3
:102aa4000124a0001e007800114098001e00780048
:102ab40010409000804078000174a0001e0078004f
:102ac40011409800650037001e0078000020a20025
:102ad400000f78001e0078009000780000002800a5
:102ae400008060000000e000110032001e00780049
:102af40010409000804078000174a1001e0078000e
:102b0400114098001e00780010409000804078002a
:102b14000164a0001e0078001140980022002000eb
:102b24009e00780050002000af0307000600370025
:102b34001e00780010409000804078000164a000de
:102b44001e007800114098001e0078000020a200aa
:102b5400000f78004e409000624060000004e000e6
:102b640006003a001e00780090007800000028005b
:102b7400008060000000e00024003200d09b2000b0
:102b84009040780000c8b30000c060000004e0007a
:102b94000a003a00d09b2000104178006f40610089
:102ba4008080fb00609b2000008040009040780003
:102bb4000114a1000148780009003700d09b2000cf
:102bc400904078006fc060008080fb00309b200044
:102bd40000804000904078000114a1000148780072
:102be4001e00780010409000b2c3b3008240600021
:102bf4001e00780011409800220020009e007800fa
:102c04005000200078030700060037001e007800fb
:102c140010409000b2c3b300824060001e007800f0
:102c240011409800a1422000d09b20001041780060
:102c34006f4061000080fb00000040000080400005
:102c4400100798001e009000104078008040780023
:102c54000114a1001e009000014878000080fa00d1
:102c6400000006000000fa00c0408000d14080004f
:102c740061004000e0804800c0408800d1408800e6
:102c84000dc8bf000004a2000004e00008003200e8
:102c94001cc8bf000040e8001ce8b7001cc8bf0007
:102ca4000004e00002003a0000c0eb001ce8b7009a
:102cb4000080fa00000006000400fa00c240800010
:102cc400d3408000028fbe00c0408000d14080000d
:102cd4001e01be00800f5100818f5900f7ff3a009a
:102ce4001e00be000080fa00000006000000fa008a
:102cf400909b2000104078007f406000e14f50001e
:102d040078003a00909b20001040780002c6b3007f
:102d14008240600000c2b30080cf500073003a00cc
:102d2400d09b2000104078000004e0000400320032
:102d3400d09b200010407800e14f50006d003a0015
:102d4400a09b2000104078000080fb0001022000be
:102d5400810f50002000320001022000810f50003a
:102d640005003c000000e0000a003200e10f5000c2
:102d7400130032006000370011022000810f500060
:102d84004300320021022000810f5000480032002d
:102d94005900370000992000304d88008000200041
:102da400504d8800404d80000000a000404d880038
:102db400404d80000070a000404d88004e00370058
:102dc40000992000304d8800404d80000070a00024
:102dd400404d880048003700f09b20001080fb0025
:102de400019c20009180fb00c808dd0001007000f8
:102df400f10f200001016000f19a20009141780058
:102e0400e0c1610002c1710082487800c800de00a0
:102e1400009b2000104178006041610081407100f6
:102e240001487800e0972000f10f200001016000c4
:102e3400c19a200091417800e0c1610002c1710093
:102e440082487800c800de00d09a20001041780043
:102e5400604161008140710001487800109b2000ae
:102e640090407800e0c0600001487800209b20007a
:102e740090407800e0c0600001487800e09a2000ab
:102e8400904078000174a000014878001a003700cf
:102e9400e0972000304d880070002000504d8800dd
:102ea400809a200011ccb30001487800120037004a
:102eb400b09b20001080fb00c19b20009180fb0090
:102ec400c808dd0001007000004078002ae8b7005f
:102ed400404d80000070a000404d880000000000bc
:102ee4000500370000000000030037000000000068
:102ef40001003700000000000080fa000000060016
:102f04000000fa0000b0240001002000f04b88000b
:102f1400014c8800209820008040eb000148780094
:102f2400309820008040eb00014878004098200051
:102f340081c0b300014878001e68ef0051c1b3009e
:102f440010c0b300ddf80700d1c1b30020c0b30046
:102f5400daf8070003c4b300e29320008040eb00da
:102f640020c0b300f2f80700304188002828ef00a1
:102f74001f68ef000080fa00000006000600fa0057
:102f8400000f780011079800220798001e007800af
:102f9400e50f500012003a00304180009e0090007e
:102fa400808f500006003a0003c4b300e29320006f
:102fb4008040eb0020c0b300ddf8070030418800fa
:102fc400404180009e009000808f500002003a0033
:102fd4001f68ef002468ef0010c0b3000100370041
:102fe4000040eb000080fa00000006000400fa0034
:102ff400000f7800214798001e68ef0030418000e0
:103004000000e000060032003041800090007800ab
:1030140000002800008060000000e00021003a0069
:1030240030418000904078002e40900080cf5000c6
:10303400030031003041800090407800214798001f
:103044001e68ef000c0037001ec8bf000080fb00a4
:103054001e004000e1812000914078008180fb0047
:10306400e2932000e2c07800014878001ec8bf0047
:103074000040e8001ee8b700e1812000914078009c
:103084002e40900080cf5000efff390003c4b300fe
:10309400e29320008040eb0020c0b300a4f80700b6
:1030a400304188001ec8bf000080fa0000000600fe
:1030b4000400fa00000f7800214798009ec0a90080
:1030c4001fc8bf000004e00009003a009e00780019
:1030d40001418800ae4090004282200001497800fe
:1030e40010c0b30025e8b70010c0b3001fe8b70054
:1030f4009ec0a8000080fa00000006000600fa0046
:10310400200798009ec0a9001fc8bf000004e0006b
:10311400020032009ec0a8001f0037000040eb00f0
:10312400004f7800ae009000110798001e4fe80091
:103134001e407800e14f40000c0032001e00900059
:10314400104078000080fb000000ea004f00de0021
:10315400004078009e0090008100e800110798006c
:103164000004e000f1ff3a00010037000000000015
:103174002e009000004188009e407800428220008a
:103184000149780010c0b30025e8b70010c0b300af
:103194001fe8b7009ec0a8000080fa0000000600e7
:1031a4000600fa00200798009ec0a9001fc8bf00af
:1031b4000004e000020032009ec0a8001e00370098
:1031c4000040eb00004f7800ae009000110798001b
:1031d4001e4fe8001e407800e14f40000c00320012
:1031e4001e009000104078000080fb000000ea0000
:1031f4004f00de00004078009e0090008100e8004f
:10320400110798000004e000f1ff3a0001003700c4
:10321400000000002e009000004188009e407800cd
:1032240042822000014978002568ef0010c0b300f5
:103234001fe8b7009ec0a8000080fa000000060046
:103244000200fa009ec0a900404180000000e00096
:1032540008003200404180009000780000002800ff
:10326400008060000000e000020032009ec0a80060
:10327400620037001fc8bf00e34f500001003a004e
:103284001f68ef001fc8bf000004e00002003a00fe
:103294009ec0a800590037001fc8bf00e24f50006d
:1032a40009003a008041eb000001eb0011c0b300bb
:1032b40020c0b3001ef807004041880030c0b300ae
:1032c4001fe8b7004c0037001fc8bf00e14f500093
:1032d40049003a00418220009140780000c4b300c4
:1032e40080cf50000300360000c4b300004f7800c4
:1032f400030037004182200091407800014f78009c
:1033040024c8bf001e40500024e8b700e08f20000e
:10331400104188009e4078001147980025c8bf00de
:103324000004e0001f003a000d0037001041800047
:1033340001418000914078000148780010418000ec
:103344000000e80010418800004180000000e8000f
:10335400004188001e4090000040e900104798009a
:103364001e4090000004e000f0ff3a001000370017
:1033740010418000014180009140780001487800ac
:10338400104180000000e8001041880000418000e6
:103394000000e800004188001e4090000040e90061
:1033a400104798001e4090000004e000f0ff3a002f
:1033b40024c8bf000004e00009003a0000c4b300c0
:1033c4009e40780080cf500003003a0020c0b30034
:1033d4001fe8b7000200370030c0b3001fe8b70091
:1033e4009e417800e28f200011c0b30020c0b300da
:1033f400cff70700404188009ec0a8000080fa0073
:10340400000006000000fa00a60007000cc8bf0078
:103414000004e000010032000dc8bf000040fe00bf
:103424005120800000022000008060000000e000c5
:1034340002003a0010c0b30041000700d2000700a8
:1034440010c0b3000080fa00000006000000fa007b
:103454000cc8bf000004e000360032000dc8bf00f5
:103464000004e0003300320040208000620060006d
:103474000000e000010032000824a90075000700e4
:1034840000042000002088000000000001208000cb
:1034940000042000008060000000e000fbff320018
:1034a40000042000002088000000000001208000ab
:1034b40000042000008060000000e000fbff3200f8
:1034c400000420000020880000000000012080008b
:1034d40000042000008060000000e000fbff3200d8
:1034e4001444a8000004200000208800000000000c
:1034f4000120800000042000008060000000e00043
:10350400fbff3200000420000020880000000000bf
:103514000120800000042000008060000000e00022
:10352400fbff32001444a9005700070010c0b30089
:10353400010037000040eb000080fa0000000600a4
:103544000400fa00204798004020800061006000d9
:103554000000e0000b0032004020800062006000a8
:103564000000e00007003a001cc8bf00e34f500011
:1035740004003600202080004300de00614060002b
:10358400320037002e4090000004e0001d0032009d
:103594000824a9000804a8002e0007000040eb003e
:1035a400004f780009003700000420000020880044
:1035b4000000000001208000000420000080600062
:1035c4000000e000fbff32001e4fe8001e407800c0
:1035d400e44f5000f4ff36000040eb001047980021
:1035e40020208000680060000000e000020032003b
:1035f40010c0b30010479800230007001e4090003d
:103604001200370040208000610060000000e000ec
:1036140002003a0000c0eb000c003700402080009c
:10362400620060000000e00002003a00e0cfb30056
:10363400060037001cc8bf00e34f500002003e00e4
:10364400d0cfb30001003700c0cfb3000080fa0030
:10365400000006000000fa003868ef001000fc00cb
:10366400f104800000042000008060000000e000fd
:103674000200320010c0b30038e8b7009ec0a900b1
:103684000080fa00000006000000fa0038c8bf00fd
:103694000004e000010032009ec0a8000080fa008f
:1036a400000006000400fa001e00fc001102800065
:1036b400000e20000080600080418800110280001c
:1036c400000e200001007000100288004009200054
:1036d400100798000000eb00000f78000e00370080
:1036e4001e009000900078001e0078000001400049
:1036f400a09e200000004100010878001e009000f8
:103704008000eb00010878001e0090000080e800b3
:10371400100798001e0fe8001e007800e60f500006
:10372400efff360060208000904188000c24ef00f9
:1037340010208000a04188000224ef007006800061
:103744004800de00674060000080fb00b041880054
:103754000001200000208800000220005020880082
:103764008ec0a9000284a80071068000f08f2f008b
:103774000080600000a0a000700688009ec0a80021
:103784000080fa00000006000400fa00400920004e
:10379400100798000000eb00000f78000b003700c2
:1037a4001e00780080004000a09e200000804000a1
:1037b400900078001e009000010878001e00900020
:1037c4000080e800100798001e0fe8001e00780033
:1037d400e60f5000f2ff3600904180006020880020
:1037e400a041800010208800b04180000040780093
:1037f400674060000080fb00670060004800dd0057
:1038040072068000f18f2f008100610001007000ba
:103814007006880011028000f0f12f0080806000a3
:103824008041800001007000804188008041800058
:10383400100288000080fa00000006000000fa0070
:1038440083e0a8003101070091000700803e2000ba
:10385400970007005ef50700b5f70700803e2000db
:1038640093000700d2f50700803e20009000070077
:1038740004000700510007000024040000000000b9
:10388400fbff37000200fa0000408000e30f500005
:103894004500360040208000620060000000e00027
:1038a40043003a001fc8bf000004e0003c003a0097
:1038b40001c4b300e0872000ccfd07001047980046
:1038c4000040eb00004f78002b0037001e80fb0007
:1038d4009e80fb00e2872000e2c07800014178006e
:1038e400e1832000827078001e80fb00e1832000c9
:1038f400e1407800e0c2b30080cf500006003a00f7
:1039040010c0b3003ce8b700406d280031c1b300db
:10391400e7fd0700270037001e80fb00e187200039
:10392400614078000080fb00ea0f50000200320082
:10393400ed0f500007003a001e80fb009e80fb0044
:10394400e287200062c17800e18b20008270780059
:10395400080037001e80fb009e80fb00e2872000e9
:10396400e2c078000141e800e18b20008270780019
:10397400000000001e4fe8001e4090009e407800aa
:1039840080cf5000d1ff39001e4090000004e000b9
:10399400030032009e409000e08b2000c4fd07002d
:1039a40027fe070003003700000000000100370075
:1039b400000000000080fa00000006000000fa0089
:1039c4009420ef009620ef009820ef009a20ef005b
:1039d4009c20ef009e20ef00a020ef00a220ef002b
:1039e4000080fa00000006000600fa00000f7800cc
:1039f40011079800220798001e0078002107200074
:103a0400810f50001800320021072000810f500060
:103a14000a003c00e20f500015003200e20f500093
:103a240003003c00e10f50000b003200150037008a
:103a3400e30f50000a003200120037004107200053
:103a4400810f50000c00320041072000810f50000c
:103a54000b0035000b00370029fd07000900370073
:103a6400a2fc070007003700000000000500370033
:103a740000000000030037000000000001003700d0
:103a84000000000010c0b3000080fa00000006002f
:103a94000000fa004c22ef000080eb007012880056
:103aa40000032800801288000080fa00000006004d
:103ab4000600fa00889fbe008a1f7800200798003d
:103ac4002e009000cf80de006af307000200200081
:103ad400a347240023f30700008fbe00000000006a
:103ae400601280008000eb0065f307000004be0054
:103af40002402200437724001e00be00a0f307000a
:103b04001ac0b3000001be000800be0057f307004e
:103b14000000e000010035000045eb000a04e0006d
:103b2400efff3a004c22ef004f0578004f04be002f
:103b34000080fa00000006000000fa0000102300d4
:103b4400100888000621ef006821ef006a21ef00c9
:103b54006e21ef007021ef007221ef007421ef005d
:103b64007621ef007a21ef007c21ef007e21ef0027
:103b74001200200080072000a1092000131020005b
:103b84008049780081497800824978001200200039
:103b94006004200071052000031020008049780093
:103ba4008149780082497800000000000008800004
:103bb400610060000000e000fcff3a00000000002b
:103bc4000108800000022000008060000000e00086
:0c3bd400fbff32000080fa000000060039
:020000040000fa
:103be000980900003200000080000000000800007a
:103bf0001e00000080000000000a000030000000ed
:103c000080000000fe0800009a0000008000000014
:103c10001e0800001200000080000000ea090000f9
:103c20000e00000080000000300800000a000000c4
:103c300080000000ca090000200000008000000091
:103c40003a0800000200000082000000ffff0000b0
:103c50003e080000c0000000800000003c0800009a
:0c3c6000020000008000000000000000d6
:020000040000fa
:103c6c000000fa008421ef008e21ef00700120008b
:103c7c00000c8800f0ff2e00500c88005620ef003e
:103c8c005820ef005a20ef006e20ef007020ef005c
:103c9c007220ef008621ef009021ef004000200001
:103cac00400c8800f0242e00900c88000080fa0054
:103cbc00000006000200fa00000f78009e00780059
:103ccc00d1418800ffff37000000fa00a09c2000c3
:103cdc0080077800209e2000000188000080fa00f8
:103cec00000006000000fa0071068000f08f2f0023
:103cfc00008060000080a000700688000080fa0040
:103d0c00000006000000fa00d5ff0700f5ff0700d1
:0c3d1c0087ff07000080fa00000006008e
:020000040000fa
:020000040001f9
:0457f000ffc30000f3
:020000040000fa
:020000040001f9
:0457f400fff60000bc
:020000040000fa
:020000040001f9
:0457f8005f38000016
:020000040000fa
:020000040001f9
:0457fc003f3d00002d
:00000001FF
